{
  "_format": "hh-sol-artifact-1",
  "contractName": "GifToken",
  "sourceName": "contracts/GifToken.sol",
  "abi": [
    {
      "inputs": [],
      "stateMutability": "nonpayable",
      "type": "constructor"
    },
    {
      "anonymous": false,
      "inputs": [
        {
          "indexed": true,
          "internalType": "address",
          "name": "owner",
          "type": "address"
        },
        {
          "indexed": true,
          "internalType": "address",
          "name": "approved",
          "type": "address"
        },
        {
          "indexed": true,
          "internalType": "uint256",
          "name": "tokenId",
          "type": "uint256"
        }
      ],
      "name": "Approval",
      "type": "event"
    },
    {
      "anonymous": false,
      "inputs": [
        {
          "indexed": true,
          "internalType": "address",
          "name": "owner",
          "type": "address"
        },
        {
          "indexed": true,
          "internalType": "address",
          "name": "operator",
          "type": "address"
        },
        {
          "indexed": false,
          "internalType": "bool",
          "name": "approved",
          "type": "bool"
        }
      ],
      "name": "ApprovalForAll",
      "type": "event"
    },
    {
      "anonymous": false,
      "inputs": [
        {
          "indexed": false,
          "internalType": "address",
          "name": "from",
          "type": "address"
        },
        {
          "indexed": false,
          "internalType": "address",
          "name": "receiver",
          "type": "address"
        },
        {
          "indexed": false,
          "internalType": "uint256",
          "name": "amount",
          "type": "uint256"
        },
        {
          "indexed": false,
          "internalType": "string",
          "name": "message",
          "type": "string"
        },
        {
          "indexed": false,
          "internalType": "uint256",
          "name": "timestamp",
          "type": "uint256"
        },
        {
          "indexed": false,
          "internalType": "string",
          "name": "keyword",
          "type": "string"
        }
      ],
      "name": "EventAddToBlockchain",
      "type": "event"
    },
    {
      "anonymous": false,
      "inputs": [
        {
          "indexed": true,
          "internalType": "address",
          "name": "previousOwner",
          "type": "address"
        },
        {
          "indexed": true,
          "internalType": "address",
          "name": "newOwner",
          "type": "address"
        }
      ],
      "name": "OwnershipTransferred",
      "type": "event"
    },
    {
      "anonymous": false,
      "inputs": [
        {
          "indexed": true,
          "internalType": "address",
          "name": "from",
          "type": "address"
        },
        {
          "indexed": true,
          "internalType": "address",
          "name": "to",
          "type": "address"
        },
        {
          "indexed": true,
          "internalType": "uint256",
          "name": "tokenId",
          "type": "uint256"
        }
      ],
      "name": "Transfer",
      "type": "event"
    },
    {
      "inputs": [
        {
          "internalType": "address payable",
          "name": "receiver",
          "type": "address"
        },
        {
          "internalType": "uint256",
          "name": "amount",
          "type": "uint256"
        },
        {
          "internalType": "string",
          "name": "message",
          "type": "string"
        },
        {
          "internalType": "string",
          "name": "keyword",
          "type": "string"
        }
      ],
      "name": "addToBlockchain",
      "outputs": [],
      "stateMutability": "nonpayable",
      "type": "function"
    },
    {
      "inputs": [
        {
          "internalType": "address",
          "name": "to",
          "type": "address"
        },
        {
          "internalType": "uint256",
          "name": "tokenId",
          "type": "uint256"
        }
      ],
      "name": "approve",
      "outputs": [],
      "stateMutability": "nonpayable",
      "type": "function"
    },
    {
      "inputs": [
        {
          "internalType": "address",
          "name": "owner",
          "type": "address"
        }
      ],
      "name": "balanceOf",
      "outputs": [
        {
          "internalType": "uint256",
          "name": "",
          "type": "uint256"
        }
      ],
      "stateMutability": "view",
      "type": "function"
    },
    {
      "inputs": [],
      "name": "baseExtension",
      "outputs": [
        {
          "internalType": "string",
          "name": "",
          "type": "string"
        }
      ],
      "stateMutability": "view",
      "type": "function"
    },
    {
      "inputs": [],
      "name": "baseURI",
      "outputs": [
        {
          "internalType": "string",
          "name": "",
          "type": "string"
        }
      ],
      "stateMutability": "view",
      "type": "function"
    },
    {
      "inputs": [],
      "name": "cost",
      "outputs": [
        {
          "internalType": "uint256",
          "name": "",
          "type": "uint256"
        }
      ],
      "stateMutability": "view",
      "type": "function"
    },
    {
      "inputs": [],
      "name": "getAllTransactions",
      "outputs": [
        {
          "components": [
            {
              "internalType": "address",
              "name": "sender",
              "type": "address"
            },
            {
              "internalType": "address",
              "name": "receiver",
              "type": "address"
            },
            {
              "internalType": "uint256",
              "name": "amount",
              "type": "uint256"
            },
            {
              "internalType": "string",
              "name": "message",
              "type": "string"
            },
            {
              "internalType": "uint256",
              "name": "timestamp",
              "type": "uint256"
            },
            {
              "internalType": "string",
              "name": "keyword",
              "type": "string"
            }
          ],
          "internalType": "struct GifToken.TransferStruct[]",
          "name": "",
          "type": "tuple[]"
        }
      ],
      "stateMutability": "view",
      "type": "function"
    },
    {
      "inputs": [
        {
          "internalType": "uint256",
          "name": "tokenId",
          "type": "uint256"
        }
      ],
      "name": "getApproved",
      "outputs": [
        {
          "internalType": "address",
          "name": "",
          "type": "address"
        }
      ],
      "stateMutability": "view",
      "type": "function"
    },
    {
      "inputs": [],
      "name": "getTransactionCount",
      "outputs": [
        {
          "internalType": "uint256",
          "name": "",
          "type": "uint256"
        }
      ],
      "stateMutability": "view",
      "type": "function"
    },
    {
      "inputs": [
        {
          "internalType": "address",
          "name": "owner",
          "type": "address"
        },
        {
          "internalType": "address",
          "name": "operator",
          "type": "address"
        }
      ],
      "name": "isApprovedForAll",
      "outputs": [
        {
          "internalType": "bool",
          "name": "",
          "type": "bool"
        }
      ],
      "stateMutability": "view",
      "type": "function"
    },
    {
      "inputs": [],
      "name": "maxMintAmount",
      "outputs": [
        {
          "internalType": "uint256",
          "name": "",
          "type": "uint256"
        }
      ],
      "stateMutability": "view",
      "type": "function"
    },
    {
      "inputs": [],
      "name": "maxSupply",
      "outputs": [
        {
          "internalType": "uint256",
          "name": "",
          "type": "uint256"
        }
      ],
      "stateMutability": "view",
      "type": "function"
    },
    {
      "inputs": [
        {
          "internalType": "address",
          "name": "_to",
          "type": "address"
        },
        {
          "internalType": "uint256",
          "name": "_mintAmount",
          "type": "uint256"
        }
      ],
      "name": "mint",
      "outputs": [],
      "stateMutability": "payable",
      "type": "function"
    },
    {
      "inputs": [],
      "name": "name",
      "outputs": [
        {
          "internalType": "string",
          "name": "",
          "type": "string"
        }
      ],
      "stateMutability": "view",
      "type": "function"
    },
    {
      "inputs": [],
      "name": "owner",
      "outputs": [
        {
          "internalType": "address",
          "name": "",
          "type": "address"
        }
      ],
      "stateMutability": "view",
      "type": "function"
    },
    {
      "inputs": [
        {
          "internalType": "uint256",
          "name": "tokenId",
          "type": "uint256"
        }
      ],
      "name": "ownerOf",
      "outputs": [
        {
          "internalType": "address",
          "name": "",
          "type": "address"
        }
      ],
      "stateMutability": "view",
      "type": "function"
    },
    {
      "inputs": [
        {
          "internalType": "bool",
          "name": "_state",
          "type": "bool"
        }
      ],
      "name": "pause",
      "outputs": [],
      "stateMutability": "nonpayable",
      "type": "function"
    },
    {
      "inputs": [],
      "name": "paused",
      "outputs": [
        {
          "internalType": "bool",
          "name": "",
          "type": "bool"
        }
      ],
      "stateMutability": "view",
      "type": "function"
    },
    {
      "inputs": [
        {
          "internalType": "address",
          "name": "_user",
          "type": "address"
        }
      ],
      "name": "removeWhitelistUser",
      "outputs": [],
      "stateMutability": "nonpayable",
      "type": "function"
    },
    {
      "inputs": [],
      "name": "renounceOwnership",
      "outputs": [],
      "stateMutability": "nonpayable",
      "type": "function"
    },
    {
      "inputs": [
        {
          "internalType": "address",
          "name": "from",
          "type": "address"
        },
        {
          "internalType": "address",
          "name": "to",
          "type": "address"
        },
        {
          "internalType": "uint256",
          "name": "tokenId",
          "type": "uint256"
        }
      ],
      "name": "safeTransferFrom",
      "outputs": [],
      "stateMutability": "nonpayable",
      "type": "function"
    },
    {
      "inputs": [
        {
          "internalType": "address",
          "name": "from",
          "type": "address"
        },
        {
          "internalType": "address",
          "name": "to",
          "type": "address"
        },
        {
          "internalType": "uint256",
          "name": "tokenId",
          "type": "uint256"
        },
        {
          "internalType": "bytes",
          "name": "_data",
          "type": "bytes"
        }
      ],
      "name": "safeTransferFrom",
      "outputs": [],
      "stateMutability": "nonpayable",
      "type": "function"
    },
    {
      "inputs": [
        {
          "internalType": "address",
          "name": "operator",
          "type": "address"
        },
        {
          "internalType": "bool",
          "name": "approved",
          "type": "bool"
        }
      ],
      "name": "setApprovalForAll",
      "outputs": [],
      "stateMutability": "nonpayable",
      "type": "function"
    },
    {
      "inputs": [
        {
          "internalType": "string",
          "name": "_newBaseExtension",
          "type": "string"
        }
      ],
      "name": "setBaseExtension",
      "outputs": [],
      "stateMutability": "nonpayable",
      "type": "function"
    },
    {
      "inputs": [
        {
          "internalType": "string",
          "name": "_newBaseURI",
          "type": "string"
        }
      ],
      "name": "setBaseURI",
      "outputs": [],
      "stateMutability": "nonpayable",
      "type": "function"
    },
    {
      "inputs": [
        {
          "internalType": "uint256",
          "name": "_newCost",
          "type": "uint256"
        }
      ],
      "name": "setCost",
      "outputs": [],
      "stateMutability": "nonpayable",
      "type": "function"
    },
    {
      "inputs": [
        {
          "internalType": "uint256",
          "name": "_newmaxMintAmount",
          "type": "uint256"
        }
      ],
      "name": "setmaxMintAmount",
      "outputs": [],
      "stateMutability": "nonpayable",
      "type": "function"
    },
    {
      "inputs": [
        {
          "internalType": "bytes4",
          "name": "interfaceId",
          "type": "bytes4"
        }
      ],
      "name": "supportsInterface",
      "outputs": [
        {
          "internalType": "bool",
          "name": "",
          "type": "bool"
        }
      ],
      "stateMutability": "view",
      "type": "function"
    },
    {
      "inputs": [],
      "name": "symbol",
      "outputs": [
        {
          "internalType": "string",
          "name": "",
          "type": "string"
        }
      ],
      "stateMutability": "view",
      "type": "function"
    },
    {
      "inputs": [
        {
          "internalType": "uint256",
          "name": "index",
          "type": "uint256"
        }
      ],
      "name": "tokenByIndex",
      "outputs": [
        {
          "internalType": "uint256",
          "name": "",
          "type": "uint256"
        }
      ],
      "stateMutability": "view",
      "type": "function"
    },
    {
      "inputs": [
        {
          "internalType": "address",
          "name": "owner",
          "type": "address"
        },
        {
          "internalType": "uint256",
          "name": "index",
          "type": "uint256"
        }
      ],
      "name": "tokenOfOwnerByIndex",
      "outputs": [
        {
          "internalType": "uint256",
          "name": "",
          "type": "uint256"
        }
      ],
      "stateMutability": "view",
      "type": "function"
    },
    {
      "inputs": [
        {
          "internalType": "uint256",
          "name": "tokenId",
          "type": "uint256"
        }
      ],
      "name": "tokenURI",
      "outputs": [
        {
          "internalType": "string",
          "name": "",
          "type": "string"
        }
      ],
      "stateMutability": "view",
      "type": "function"
    },
    {
      "inputs": [],
      "name": "totalSupply",
      "outputs": [
        {
          "internalType": "uint256",
          "name": "",
          "type": "uint256"
        }
      ],
      "stateMutability": "view",
      "type": "function"
    },
    {
      "inputs": [
        {
          "internalType": "address",
          "name": "from",
          "type": "address"
        },
        {
          "internalType": "address",
          "name": "to",
          "type": "address"
        },
        {
          "internalType": "uint256",
          "name": "tokenId",
          "type": "uint256"
        }
      ],
      "name": "transferFrom",
      "outputs": [],
      "stateMutability": "nonpayable",
      "type": "function"
    },
    {
      "inputs": [
        {
          "internalType": "address",
          "name": "newOwner",
          "type": "address"
        }
      ],
      "name": "transferOwnership",
      "outputs": [],
      "stateMutability": "nonpayable",
      "type": "function"
    },
    {
      "inputs": [
        {
          "internalType": "address",
          "name": "_owner",
          "type": "address"
        }
      ],
      "name": "walletOfOwner",
      "outputs": [
        {
          "internalType": "uint256[]",
          "name": "",
          "type": "uint256[]"
        }
      ],
      "stateMutability": "view",
      "type": "function"
    },
    {
      "inputs": [
        {
          "internalType": "address",
          "name": "_user",
          "type": "address"
        }
      ],
      "name": "whitelistUser",
      "outputs": [],
      "stateMutability": "nonpayable",
      "type": "function"
    },
    {
      "inputs": [
        {
          "internalType": "address",
          "name": "",
          "type": "address"
        }
      ],
      "name": "whitelisted",
      "outputs": [
        {
          "internalType": "bool",
          "name": "",
          "type": "bool"
        }
      ],
      "stateMutability": "view",
      "type": "function"
    },
    {
      "inputs": [],
      "name": "withdraw",
      "outputs": [],
      "stateMutability": "payable",
      "type": "function"
    }
  ],
  "bytecode": "0x60806040526040518060400160405280600581526020017f2e6a736f6e000000000000000000000000000000000000000000000000000000815250600c90805190602001906200005192919062000d8b565b50662386f26fc10000600d556103e8600e556014600f556000601060006101000a81548160ff0219169083151502179055503480156200009057600080fd5b506040518060400160405280600981526020017f504f432d4d2d47494600000000000000000000000000000000000000000000008152506040518060400160405280600481526020017f504d47310000000000000000000000000000000000000000000000000000000081525081600090805190602001906200011592919062000d8b565b5080600190805190602001906200012e92919062000d8b565b50505062000151620001456200019460201b60201c565b6200019c60201b60201c565b6200017b60405180606001604052806035815260200162006030603591396200026260201b60201c565b6200018e3360016200030d60201b60201c565b620013df565b600033905090565b6000600a60009054906101000a900473ffffffffffffffffffffffffffffffffffffffff16905081600a60006101000a81548173ffffffffffffffffffffffffffffffffffffffff021916908373ffffffffffffffffffffffffffffffffffffffff1602179055508173ffffffffffffffffffffffffffffffffffffffff168173ffffffffffffffffffffffffffffffffffffffff167f8be0079c531659141344cd1fd0a4f28419497f9722a3daafe3b4186f6b6457e060405160405180910390a35050565b620002726200019460201b60201c565b73ffffffffffffffffffffffffffffffffffffffff16620002986200033360201b60201c565b73ffffffffffffffffffffffffffffffffffffffff1614620002f1576040517f08c379a0000000000000000000000000000000000000000000000000000000008152600401620002e89062001080565b60405180910390fd5b80600b90805190602001906200030992919062000d8b565b5050565b6200032f8282604051806020016040528060008152506200035d60201b60201c565b5050565b6000600a60009054906101000a900473ffffffffffffffffffffffffffffffffffffffff16905090565b6200036f8383620003cb60201b60201c565b620003846000848484620005b160201b60201c565b620003c6576040517f08c379a0000000000000000000000000000000000000000000000000000000008152600401620003bd9062000ff8565b60405180910390fd5b505050565b600073ffffffffffffffffffffffffffffffffffffffff168273ffffffffffffffffffffffffffffffffffffffff1614156200043e576040517f08c379a000000000000000000000000000000000000000000000000000000000815260040162000435906200105e565b60405180910390fd5b6200044f816200076b60201b60201c565b1562000492576040517f08c379a000000000000000000000000000000000000000000000000000000000815260040162000489906200101a565b60405180910390fd5b620004a660008383620007d760201b60201c565b6001600360008473ffffffffffffffffffffffffffffffffffffffff1673ffffffffffffffffffffffffffffffffffffffff1681526020019081526020016000206000828254620004f89190620010cf565b92505081905550816002600083815260200190815260200160002060006101000a81548173ffffffffffffffffffffffffffffffffffffffff021916908373ffffffffffffffffffffffffffffffffffffffff160217905550808273ffffffffffffffffffffffffffffffffffffffff16600073ffffffffffffffffffffffffffffffffffffffff167fddf252ad1be2c89b69c2b068fc378daa952ba7f163c4a11628f55a4df523b3ef60405160405180910390a45050565b6000620005df8473ffffffffffffffffffffffffffffffffffffffff166200091e60201b62001fd31760201c565b156200075e578373ffffffffffffffffffffffffffffffffffffffff1663150b7a02620006116200019460201b60201c565b8786866040518563ffffffff1660e01b815260040162000635949392919062000fa4565b602060405180830381600087803b1580156200065057600080fd5b505af19250505080156200068457506040513d601f19601f8201168201806040525081019062000681919062000e52565b60015b6200070d573d8060008114620006b7576040519150601f19603f3d011682016040523d82523d6000602084013e620006bc565b606091505b5060008151141562000705576040517f08c379a0000000000000000000000000000000000000000000000000000000008152600401620006fc9062000ff8565b60405180910390fd5b805181602001fd5b63150b7a0260e01b7bffffffffffffffffffffffffffffffffffffffffffffffffffffffff1916817bffffffffffffffffffffffffffffffffffffffffffffffffffffffff19161491505062000763565b600190505b949350505050565b60008073ffffffffffffffffffffffffffffffffffffffff166002600084815260200190815260200160002060009054906101000a900473ffffffffffffffffffffffffffffffffffffffff1673ffffffffffffffffffffffffffffffffffffffff1614159050919050565b620007ef8383836200093160201b62001fe61760201c565b600073ffffffffffffffffffffffffffffffffffffffff168373ffffffffffffffffffffffffffffffffffffffff1614156200083c5762000836816200093660201b60201c565b62000884565b8173ffffffffffffffffffffffffffffffffffffffff168373ffffffffffffffffffffffffffffffffffffffff161462000883576200088283826200097f60201b60201c565b5b5b600073ffffffffffffffffffffffffffffffffffffffff168273ffffffffffffffffffffffffffffffffffffffff161415620008d157620008cb8162000afc60201b60201c565b62000919565b8273ffffffffffffffffffffffffffffffffffffffff168273ffffffffffffffffffffffffffffffffffffffff1614620009185762000917828262000c4460201b60201c565b5b5b505050565b600080823b905060008111915050919050565b505050565b6008805490506009600083815260200190815260200160002081905550600881908060018154018082558091505060019003906000526020600020016000909190919091505550565b60006001620009998462000cd060201b620017961760201c565b620009a591906200112c565b905060006007600084815260200190815260200160002054905081811462000a8b576000600660008673ffffffffffffffffffffffffffffffffffffffff1673ffffffffffffffffffffffffffffffffffffffff168152602001908152602001600020600084815260200190815260200160002054905080600660008773ffffffffffffffffffffffffffffffffffffffff1673ffffffffffffffffffffffffffffffffffffffff168152602001908152602001600020600084815260200190815260200160002081905550816007600083815260200190815260200160002081905550505b6007600084815260200190815260200160002060009055600660008573ffffffffffffffffffffffffffffffffffffffff1673ffffffffffffffffffffffffffffffffffffffff16815260200190815260200160002060008381526020019081526020016000206000905550505050565b6000600160088054905062000b1291906200112c565b905060006009600084815260200190815260200160002054905060006008838154811062000b69577f4e487b7100000000000000000000000000000000000000000000000000000000600052603260045260246000fd5b90600052602060002001549050806008838154811062000bb2577f4e487b7100000000000000000000000000000000000000000000000000000000600052603260045260246000fd5b90600052602060002001819055508160096000838152602001908152602001600020819055506009600085815260200190815260200160002060009055600880548062000c28577f4e487b7100000000000000000000000000000000000000000000000000000000600052603160045260246000fd5b6001900381819060005260206000200160009055905550505050565b600062000c5c8362000cd060201b620017961760201c565b905081600660008573ffffffffffffffffffffffffffffffffffffffff1673ffffffffffffffffffffffffffffffffffffffff168152602001908152602001600020600083815260200190815260200160002081905550806007600084815260200190815260200160002081905550505050565b60008073ffffffffffffffffffffffffffffffffffffffff168273ffffffffffffffffffffffffffffffffffffffff16141562000d44576040517f08c379a000000000000000000000000000000000000000000000000000000000815260040162000d3b906200103c565b60405180910390fd5b600360008373ffffffffffffffffffffffffffffffffffffffff1673ffffffffffffffffffffffffffffffffffffffff168152602001908152602001600020549050919050565b82805462000d999062001207565b90600052602060002090601f01602090048101928262000dbd576000855562000e09565b82601f1062000dd857805160ff191683800117855562000e09565b8280016001018555821562000e09579182015b8281111562000e0857825182559160200191906001019062000deb565b5b50905062000e18919062000e1c565b5090565b5b8082111562000e3757600081600090555060010162000e1d565b5090565b60008151905062000e4c81620013c5565b92915050565b60006020828403121562000e6557600080fd5b600062000e758482850162000e3b565b91505092915050565b62000e898162001167565b82525050565b600062000e9c82620010a2565b62000ea88185620010ad565b935062000eba818560208601620011d1565b62000ec5816200129b565b840191505092915050565b600062000edf603283620010be565b915062000eec82620012ac565b604082019050919050565b600062000f06601c83620010be565b915062000f1382620012fb565b602082019050919050565b600062000f2d602a83620010be565b915062000f3a8262001324565b604082019050919050565b600062000f54602083620010be565b915062000f618262001373565b602082019050919050565b600062000f7b602083620010be565b915062000f88826200139c565b602082019050919050565b62000f9e81620011c7565b82525050565b600060808201905062000fbb600083018762000e7e565b62000fca602083018662000e7e565b62000fd9604083018562000f93565b818103606083015262000fed818462000e8f565b905095945050505050565b60006020820190508181036000830152620010138162000ed0565b9050919050565b60006020820190508181036000830152620010358162000ef7565b9050919050565b60006020820190508181036000830152620010578162000f1e565b9050919050565b60006020820190508181036000830152620010798162000f45565b9050919050565b600060208201905081810360008301526200109b8162000f6c565b9050919050565b600081519050919050565b600082825260208201905092915050565b600082825260208201905092915050565b6000620010dc82620011c7565b9150620010e983620011c7565b9250827fffffffffffffffffffffffffffffffffffffffffffffffffffffffffffffffff038211156200112157620011206200123d565b5b828201905092915050565b60006200113982620011c7565b91506200114683620011c7565b9250828210156200115c576200115b6200123d565b5b828203905092915050565b60006200117482620011a7565b9050919050565b60007fffffffff0000000000000000000000000000000000000000000000000000000082169050919050565b600073ffffffffffffffffffffffffffffffffffffffff82169050919050565b6000819050919050565b60005b83811015620011f1578082015181840152602081019050620011d4565b8381111562001201576000848401525b50505050565b600060028204905060018216806200122057607f821691505b602082108114156200123757620012366200126c565b5b50919050565b7f4e487b7100000000000000000000000000000000000000000000000000000000600052601160045260246000fd5b7f4e487b7100000000000000000000000000000000000000000000000000000000600052602260045260246000fd5b6000601f19601f8301169050919050565b7f4552433732313a207472616e7366657220746f206e6f6e20455243373231526560008201527f63656976657220696d706c656d656e7465720000000000000000000000000000602082015250565b7f4552433732313a20746f6b656e20616c7265616479206d696e74656400000000600082015250565b7f4552433732313a2062616c616e636520717565727920666f7220746865207a6560008201527f726f206164647265737300000000000000000000000000000000000000000000602082015250565b7f4552433732313a206d696e7420746f20746865207a65726f2061646472657373600082015250565b7f4f776e61626c653a2063616c6c6572206973206e6f7420746865206f776e6572600082015250565b620013d0816200117b565b8114620013dc57600080fd5b50565b614c4180620013ef6000396000f3fe6080604052600436106102305760003560e01c80634f6ccce71161012e578063a22cb465116100ab578063d5abeb011161006f578063d5abeb011461081f578063d936547e1461084a578063da3ef23f14610887578063e985e9c5146108b0578063f2fde38b146108ed57610230565b8063a22cb4651461073c578063b88d4fde14610765578063c66828621461078e578063c87b56dd146107b9578063cc2d7ead146107f657610230565b806370a08231116100f257806370a0823114610669578063715018a6146106a65780637f00c7a6146106bd5780638da5cb5b146106e657806395d89b411461071157610230565b80634f6ccce71461057057806355f804b3146105ad5780635c975abb146105d65780636352211e146106015780636c0360eb1461063e57610230565b806327506f53116101bc57806340c10f191161018057806340c10f191461049c57806342842e0e146104b8578063438b6300146104e157806344a0d68a1461051e5780634a4c560d1461054757610230565b806327506f53146103d65780632e7700f0146104015780632f745c591461042c57806330cc7ae0146104695780633ccfd60b1461049257610230565b8063095ea7b311610203578063095ea7b31461030357806313faede61461032c57806318160ddd14610357578063239c70ae1461038257806323b872dd146103ad57610230565b806301ffc9a71461023557806302329a291461027257806306fdde031461029b578063081812fc146102c6575b600080fd5b34801561024157600080fd5b5061025c6004803603810190610257919061372a565b610916565b6040516102699190613eeb565b60405180910390f35b34801561027e57600080fd5b5061029960048036038101906102949190613701565b610990565b005b3480156102a757600080fd5b506102b0610a29565b6040516102bd9190613f06565b60405180910390f35b3480156102d257600080fd5b506102ed60048036038101906102e891906137bd565b610abb565b6040516102fa9190613dd1565b60405180910390f35b34801561030f57600080fd5b5061032a600480360381019061032591906136c5565b610b40565b005b34801561033857600080fd5b50610341610c58565b60405161034e9190614168565b60405180910390f35b34801561036357600080fd5b5061036c610c5e565b6040516103799190614168565b60405180910390f35b34801561038e57600080fd5b50610397610c6b565b6040516103a49190614168565b60405180910390f35b3480156103b957600080fd5b506103d460048036038101906103cf91906135bf565b610c71565b005b3480156103e257600080fd5b506103eb610cd1565b6040516103f89190613ea7565b60405180910390f35b34801561040d57600080fd5b50610416610f14565b6040516104239190614168565b60405180910390f35b34801561043857600080fd5b50610453600480360381019061044e91906136c5565b610f1e565b6040516104609190614168565b60405180910390f35b34801561047557600080fd5b50610490600480360381019061048b91906134c7565b610fc3565b005b61049a61109a565b005b6104b660048036038101906104b191906136c5565b611156565b005b3480156104c457600080fd5b506104df60048036038101906104da91906135bf565b61129f565b005b3480156104ed57600080fd5b50610508600480360381019061050391906134c7565b6112bf565b6040516105159190613ec9565b60405180910390f35b34801561052a57600080fd5b50610545600480360381019061054091906137bd565b6113b9565b005b34801561055357600080fd5b5061056e600480360381019061056991906134c7565b61143f565b005b34801561057c57600080fd5b50610597600480360381019061059291906137bd565b611516565b6040516105a49190614168565b60405180910390f35b3480156105b957600080fd5b506105d460048036038101906105cf919061377c565b6115ad565b005b3480156105e257600080fd5b506105eb611643565b6040516105f89190613eeb565b60405180910390f35b34801561060d57600080fd5b50610628600480360381019061062391906137bd565b611656565b6040516106359190613dd1565b60405180910390f35b34801561064a57600080fd5b50610653611708565b6040516106609190613f06565b60405180910390f35b34801561067557600080fd5b50610690600480360381019061068b91906134c7565b611796565b60405161069d9190614168565b60405180910390f35b3480156106b257600080fd5b506106bb61184e565b005b3480156106c957600080fd5b506106e460048036038101906106df91906137bd565b6118d6565b005b3480156106f257600080fd5b506106fb61195c565b6040516107089190613dd1565b60405180910390f35b34801561071d57600080fd5b50610726611986565b6040516107339190613f06565b60405180910390f35b34801561074857600080fd5b50610763600480360381019061075e9190613689565b611a18565b005b34801561077157600080fd5b5061078c6004803603810190610787919061360e565b611a2e565b005b34801561079a57600080fd5b506107a3611a90565b6040516107b09190613f06565b60405180910390f35b3480156107c557600080fd5b506107e060048036038101906107db91906137bd565b611b1e565b6040516107ed9190613f06565b60405180910390f35b34801561080257600080fd5b5061081d600480360381019061081891906134f0565b611bc8565b005b34801561082b57600080fd5b50610834611d8b565b6040516108419190614168565b60405180910390f35b34801561085657600080fd5b50610871600480360381019061086c91906134c7565b611d91565b60405161087e9190613eeb565b60405180910390f35b34801561089357600080fd5b506108ae60048036038101906108a9919061377c565b611db1565b005b3480156108bc57600080fd5b506108d760048036038101906108d29190613583565b611e47565b6040516108e49190613eeb565b60405180910390f35b3480156108f957600080fd5b50610914600480360381019061090f91906134c7565b611edb565b005b60007f780e9d63000000000000000000000000000000000000000000000000000000007bffffffffffffffffffffffffffffffffffffffffffffffffffffffff1916827bffffffffffffffffffffffffffffffffffffffffffffffffffffffff19161480610989575061098882611feb565b5b9050919050565b6109986120cd565b73ffffffffffffffffffffffffffffffffffffffff166109b661195c565b73ffffffffffffffffffffffffffffffffffffffff1614610a0c576040517f08c379a0000000000000000000000000000000000000000000000000000000008152600401610a03906140a8565b60405180910390fd5b80601060006101000a81548160ff02191690831515021790555050565b606060008054610a38906144f8565b80601f0160208091040260200160405190810160405280929190818152602001828054610a64906144f8565b8015610ab15780601f10610a8657610100808354040283529160200191610ab1565b820191906000526020600020905b815481529060010190602001808311610a9457829003601f168201915b5050505050905090565b6000610ac6826120d5565b610b05576040517f08c379a0000000000000000000000000000000000000000000000000000000008152600401610afc90614088565b60405180910390fd5b6004600083815260200190815260200160002060009054906101000a900473ffffffffffffffffffffffffffffffffffffffff169050919050565b6000610b4b82611656565b90508073ffffffffffffffffffffffffffffffffffffffff168373ffffffffffffffffffffffffffffffffffffffff161415610bbc576040517f08c379a0000000000000000000000000000000000000000000000000000000008152600401610bb390614108565b60405180910390fd5b8073ffffffffffffffffffffffffffffffffffffffff16610bdb6120cd565b73ffffffffffffffffffffffffffffffffffffffff161480610c0a5750610c0981610c046120cd565b611e47565b5b610c49576040517f08c379a0000000000000000000000000000000000000000000000000000000008152600401610c4090614008565b60405180910390fd5b610c538383612141565b505050565b600d5481565b6000600880549050905090565b600f5481565b610c82610c7c6120cd565b826121fa565b610cc1576040517f08c379a0000000000000000000000000000000000000000000000000000000008152600401610cb890614128565b60405180910390fd5b610ccc8383836122d8565b505050565b60606013805480602002602001604051908101604052809291908181526020016000905b82821015610f0b57838290600052602060002090600602016040518060c00160405290816000820160009054906101000a900473ffffffffffffffffffffffffffffffffffffffff1673ffffffffffffffffffffffffffffffffffffffff1673ffffffffffffffffffffffffffffffffffffffff1681526020016001820160009054906101000a900473ffffffffffffffffffffffffffffffffffffffff1673ffffffffffffffffffffffffffffffffffffffff1673ffffffffffffffffffffffffffffffffffffffff16815260200160028201548152602001600382018054610dde906144f8565b80601f0160208091040260200160405190810160405280929190818152602001828054610e0a906144f8565b8015610e575780601f10610e2c57610100808354040283529160200191610e57565b820191906000526020600020905b815481529060010190602001808311610e3a57829003601f168201915b5050505050815260200160048201548152602001600582018054610e7a906144f8565b80601f0160208091040260200160405190810160405280929190818152602001828054610ea6906144f8565b8015610ef35780601f10610ec857610100808354040283529160200191610ef3565b820191906000526020600020905b815481529060010190602001808311610ed657829003601f168201915b50505050508152505081526020019060010190610cf5565b50505050905090565b6000601254905090565b6000610f2983611796565b8210610f6a576040517f08c379a0000000000000000000000000000000000000000000000000000000008152600401610f6190613f28565b60405180910390fd5b600660008473ffffffffffffffffffffffffffffffffffffffff1673ffffffffffffffffffffffffffffffffffffffff168152602001908152602001600020600083815260200190815260200160002054905092915050565b610fcb6120cd565b73ffffffffffffffffffffffffffffffffffffffff16610fe961195c565b73ffffffffffffffffffffffffffffffffffffffff161461103f576040517f08c379a0000000000000000000000000000000000000000000000000000000008152600401611036906140a8565b60405180910390fd5b6000601160008373ffffffffffffffffffffffffffffffffffffffff1673ffffffffffffffffffffffffffffffffffffffff16815260200190815260200160002060006101000a81548160ff02191690831515021790555050565b6110a26120cd565b73ffffffffffffffffffffffffffffffffffffffff166110c061195c565b73ffffffffffffffffffffffffffffffffffffffff1614611116576040517f08c379a000000000000000000000000000000000000000000000000000000000815260040161110d906140a8565b60405180910390fd5b3373ffffffffffffffffffffffffffffffffffffffff166108fc479081150290604051600060405180830381858888f1935050505061115457600080fd5b565b3391506000611163610c5e565b9050601060009054906101000a900460ff161561117f57600080fd5b6000821161118c57600080fd5b600f5482111561119b57600080fd5b600e5482826111aa91906142e5565b11156111b557600080fd5b6111bd61195c565b73ffffffffffffffffffffffffffffffffffffffff163373ffffffffffffffffffffffffffffffffffffffff16146112635760011515601160003373ffffffffffffffffffffffffffffffffffffffff1673ffffffffffffffffffffffffffffffffffffffff16815260200190815260200160002060009054906101000a900460ff161515146112625781600d54611255919061436c565b34101561126157600080fd5b5b5b6000600190505b8281116112995761128684828461128191906142e5565b612534565b80806112919061455b565b91505061126a565b50505050565b6112ba83838360405180602001604052806000815250611a2e565b505050565b606060006112cc83611796565b905060008167ffffffffffffffff811115611310577f4e487b7100000000000000000000000000000000000000000000000000000000600052604160045260246000fd5b60405190808252806020026020018201604052801561133e5781602001602082028036833780820191505090505b50905060005b828110156113ae576113568582610f1e565b82828151811061138f577f4e487b7100000000000000000000000000000000000000000000000000000000600052603260045260246000fd5b60200260200101818152505080806113a69061455b565b915050611344565b508092505050919050565b6113c16120cd565b73ffffffffffffffffffffffffffffffffffffffff166113df61195c565b73ffffffffffffffffffffffffffffffffffffffff1614611435576040517f08c379a000000000000000000000000000000000000000000000000000000000815260040161142c906140a8565b60405180910390fd5b80600d8190555050565b6114476120cd565b73ffffffffffffffffffffffffffffffffffffffff1661146561195c565b73ffffffffffffffffffffffffffffffffffffffff16146114bb576040517f08c379a00000000000000000000000000000000000000000000000000000000081526004016114b2906140a8565b60405180910390fd5b6001601160008373ffffffffffffffffffffffffffffffffffffffff1673ffffffffffffffffffffffffffffffffffffffff16815260200190815260200160002060006101000a81548160ff02191690831515021790555050565b6000611520610c5e565b8210611561576040517f08c379a000000000000000000000000000000000000000000000000000000000815260040161155890614148565b60405180910390fd5b6008828154811061159b577f4e487b7100000000000000000000000000000000000000000000000000000000600052603260045260246000fd5b90600052602060002001549050919050565b6115b56120cd565b73ffffffffffffffffffffffffffffffffffffffff166115d361195c565b73ffffffffffffffffffffffffffffffffffffffff1614611629576040517f08c379a0000000000000000000000000000000000000000000000000000000008152600401611620906140a8565b60405180910390fd5b80600b908051906020019061163f9291906132d6565b5050565b601060009054906101000a900460ff1681565b6000806002600084815260200190815260200160002060009054906101000a900473ffffffffffffffffffffffffffffffffffffffff169050600073ffffffffffffffffffffffffffffffffffffffff168173ffffffffffffffffffffffffffffffffffffffff1614156116ff576040517f08c379a00000000000000000000000000000000000000000000000000000000081526004016116f690614048565b60405180910390fd5b80915050919050565b600b8054611715906144f8565b80601f0160208091040260200160405190810160405280929190818152602001828054611741906144f8565b801561178e5780601f106117635761010080835404028352916020019161178e565b820191906000526020600020905b81548152906001019060200180831161177157829003601f168201915b505050505081565b60008073ffffffffffffffffffffffffffffffffffffffff168273ffffffffffffffffffffffffffffffffffffffff161415611807576040517f08c379a00000000000000000000000000000000000000000000000000000000081526004016117fe90614028565b60405180910390fd5b600360008373ffffffffffffffffffffffffffffffffffffffff1673ffffffffffffffffffffffffffffffffffffffff168152602001908152602001600020549050919050565b6118566120cd565b73ffffffffffffffffffffffffffffffffffffffff1661187461195c565b73ffffffffffffffffffffffffffffffffffffffff16146118ca576040517f08c379a00000000000000000000000000000000000000000000000000000000081526004016118c1906140a8565b60405180910390fd5b6118d46000612552565b565b6118de6120cd565b73ffffffffffffffffffffffffffffffffffffffff166118fc61195c565b73ffffffffffffffffffffffffffffffffffffffff1614611952576040517f08c379a0000000000000000000000000000000000000000000000000000000008152600401611949906140a8565b60405180910390fd5b80600f8190555050565b6000600a60009054906101000a900473ffffffffffffffffffffffffffffffffffffffff16905090565b606060018054611995906144f8565b80601f01602080910402602001604051908101604052809291908181526020018280546119c1906144f8565b8015611a0e5780601f106119e357610100808354040283529160200191611a0e565b820191906000526020600020905b8154815290600101906020018083116119f157829003601f168201915b5050505050905090565b611a2a611a236120cd565b8383612618565b5050565b611a3f611a396120cd565b836121fa565b611a7e576040517f08c379a0000000000000000000000000000000000000000000000000000000008152600401611a7590614128565b60405180910390fd5b611a8a84848484612785565b50505050565b600c8054611a9d906144f8565b80601f0160208091040260200160405190810160405280929190818152602001828054611ac9906144f8565b8015611b165780601f10611aeb57610100808354040283529160200191611b16565b820191906000526020600020905b815481529060010190602001808311611af957829003601f168201915b505050505081565b6060611b29826120d5565b611b68576040517f08c379a0000000000000000000000000000000000000000000000000000000008152600401611b5f906140e8565b60405180910390fd5b6000611b726127e1565b90506000815111611b925760405180602001604052806000815250611bc0565b80611b9c84612873565b600c604051602001611bb093929190613da0565b6040516020818303038152906040525b915050919050565b600160126000828254611bdb91906142e5565b9250508190555060136040518060c001604052803373ffffffffffffffffffffffffffffffffffffffff1681526020018673ffffffffffffffffffffffffffffffffffffffff16815260200185815260200184815260200142815260200183815250908060018154018082558091505060019003906000526020600020906006020160009091909190915060008201518160000160006101000a81548173ffffffffffffffffffffffffffffffffffffffff021916908373ffffffffffffffffffffffffffffffffffffffff16021790555060208201518160010160006101000a81548173ffffffffffffffffffffffffffffffffffffffff021916908373ffffffffffffffffffffffffffffffffffffffff160217905550604082015181600201556060820151816003019080519060200190611d1a9291906132d6565b506080820151816004015560a0820151816005019080519060200190611d419291906132d6565b5050507f3f231e1cae96fe4d242c23303a40c53e34f21b1ef7b10df6e8131a2715cf1861338585854286604051611d7d96959493929190613dec565b60405180910390a150505050565b600e5481565b60116020528060005260406000206000915054906101000a900460ff1681565b611db96120cd565b73ffffffffffffffffffffffffffffffffffffffff16611dd761195c565b73ffffffffffffffffffffffffffffffffffffffff1614611e2d576040517f08c379a0000000000000000000000000000000000000000000000000000000008152600401611e24906140a8565b60405180910390fd5b80600c9080519060200190611e439291906132d6565b5050565b6000600560008473ffffffffffffffffffffffffffffffffffffffff1673ffffffffffffffffffffffffffffffffffffffff16815260200190815260200160002060008373ffffffffffffffffffffffffffffffffffffffff1673ffffffffffffffffffffffffffffffffffffffff16815260200190815260200160002060009054906101000a900460ff16905092915050565b611ee36120cd565b73ffffffffffffffffffffffffffffffffffffffff16611f0161195c565b73ffffffffffffffffffffffffffffffffffffffff1614611f57576040517f08c379a0000000000000000000000000000000000000000000000000000000008152600401611f4e906140a8565b60405180910390fd5b600073ffffffffffffffffffffffffffffffffffffffff168173ffffffffffffffffffffffffffffffffffffffff161415611fc7576040517f08c379a0000000000000000000000000000000000000000000000000000000008152600401611fbe90613f68565b60405180910390fd5b611fd081612552565b50565b600080823b905060008111915050919050565b505050565b60007f80ac58cd000000000000000000000000000000000000000000000000000000007bffffffffffffffffffffffffffffffffffffffffffffffffffffffff1916827bffffffffffffffffffffffffffffffffffffffffffffffffffffffff191614806120b657507f5b5e139f000000000000000000000000000000000000000000000000000000007bffffffffffffffffffffffffffffffffffffffffffffffffffffffff1916827bffffffffffffffffffffffffffffffffffffffffffffffffffffffff1916145b806120c657506120c582612a20565b5b9050919050565b600033905090565b60008073ffffffffffffffffffffffffffffffffffffffff166002600084815260200190815260200160002060009054906101000a900473ffffffffffffffffffffffffffffffffffffffff1673ffffffffffffffffffffffffffffffffffffffff1614159050919050565b816004600083815260200190815260200160002060006101000a81548173ffffffffffffffffffffffffffffffffffffffff021916908373ffffffffffffffffffffffffffffffffffffffff160217905550808273ffffffffffffffffffffffffffffffffffffffff166121b483611656565b73ffffffffffffffffffffffffffffffffffffffff167f8c5be1e5ebec7d5bd14f71427d1e84f3dd0314c0f7b2291e5b200ac8c7c3b92560405160405180910390a45050565b6000612205826120d5565b612244576040517f08c379a000000000000000000000000000000000000000000000000000000000815260040161223b90613fe8565b60405180910390fd5b600061224f83611656565b90508073ffffffffffffffffffffffffffffffffffffffff168473ffffffffffffffffffffffffffffffffffffffff1614806122be57508373ffffffffffffffffffffffffffffffffffffffff166122a684610abb565b73ffffffffffffffffffffffffffffffffffffffff16145b806122cf57506122ce8185611e47565b5b91505092915050565b8273ffffffffffffffffffffffffffffffffffffffff166122f882611656565b73ffffffffffffffffffffffffffffffffffffffff161461234e576040517f08c379a0000000000000000000000000000000000000000000000000000000008152600401612345906140c8565b60405180910390fd5b600073ffffffffffffffffffffffffffffffffffffffff168273ffffffffffffffffffffffffffffffffffffffff1614156123be576040517f08c379a00000000000000000000000000000000000000000000000000000000081526004016123b590613fa8565b60405180910390fd5b6123c9838383612a8a565b6123d4600082612141565b6001600360008573ffffffffffffffffffffffffffffffffffffffff1673ffffffffffffffffffffffffffffffffffffffff168152602001908152602001600020600082825461242491906143c6565b925050819055506001600360008473ffffffffffffffffffffffffffffffffffffffff1673ffffffffffffffffffffffffffffffffffffffff168152602001908152602001600020600082825461247b91906142e5565b92505081905550816002600083815260200190815260200160002060006101000a81548173ffffffffffffffffffffffffffffffffffffffff021916908373ffffffffffffffffffffffffffffffffffffffff160217905550808273ffffffffffffffffffffffffffffffffffffffff168473ffffffffffffffffffffffffffffffffffffffff167fddf252ad1be2c89b69c2b068fc378daa952ba7f163c4a11628f55a4df523b3ef60405160405180910390a4505050565b61254e828260405180602001604052806000815250612b9e565b5050565b6000600a60009054906101000a900473ffffffffffffffffffffffffffffffffffffffff16905081600a60006101000a81548173ffffffffffffffffffffffffffffffffffffffff021916908373ffffffffffffffffffffffffffffffffffffffff1602179055508173ffffffffffffffffffffffffffffffffffffffff168173ffffffffffffffffffffffffffffffffffffffff167f8be0079c531659141344cd1fd0a4f28419497f9722a3daafe3b4186f6b6457e060405160405180910390a35050565b8173ffffffffffffffffffffffffffffffffffffffff168373ffffffffffffffffffffffffffffffffffffffff161415612687576040517f08c379a000000000000000000000000000000000000000000000000000000000815260040161267e90613fc8565b60405180910390fd5b80600560008573ffffffffffffffffffffffffffffffffffffffff1673ffffffffffffffffffffffffffffffffffffffff16815260200190815260200160002060008473ffffffffffffffffffffffffffffffffffffffff1673ffffffffffffffffffffffffffffffffffffffff16815260200190815260200160002060006101000a81548160ff0219169083151502179055508173ffffffffffffffffffffffffffffffffffffffff168373ffffffffffffffffffffffffffffffffffffffff167f17307eab39ab6107e8899845ad3d59bd9653f200f220920489ca2b5937696c31836040516127789190613eeb565b60405180910390a3505050565b6127908484846122d8565b61279c84848484612bf9565b6127db576040517f08c379a00000000000000000000000000000000000000000000000000000000081526004016127d290613f48565b60405180910390fd5b50505050565b6060600b80546127f0906144f8565b80601f016020809104026020016040519081016040528092919081815260200182805461281c906144f8565b80156128695780601f1061283e57610100808354040283529160200191612869565b820191906000526020600020905b81548152906001019060200180831161284c57829003601f168201915b5050505050905090565b606060008214156128bb576040518060400160405280600181526020017f30000000000000000000000000000000000000000000000000000000000000008152509050612a1b565b600082905060005b600082146128ed5780806128d69061455b565b915050600a826128e6919061433b565b91506128c3565b60008167ffffffffffffffff81111561292f577f4e487b7100000000000000000000000000000000000000000000000000000000600052604160045260246000fd5b6040519080825280601f01601f1916602001820160405280156129615781602001600182028036833780820191505090505b5090505b60008514612a145760018261297a91906143c6565b9150600a8561298991906145a4565b603061299591906142e5565b60f81b8183815181106129d1577f4e487b7100000000000000000000000000000000000000000000000000000000600052603260045260246000fd5b60200101907effffffffffffffffffffffffffffffffffffffffffffffffffffffffffffff1916908160001a905350600a85612a0d919061433b565b9450612965565b8093505050505b919050565b60007f01ffc9a7000000000000000000000000000000000000000000000000000000007bffffffffffffffffffffffffffffffffffffffffffffffffffffffff1916827bffffffffffffffffffffffffffffffffffffffffffffffffffffffff1916149050919050565b612a95838383611fe6565b600073ffffffffffffffffffffffffffffffffffffffff168373ffffffffffffffffffffffffffffffffffffffff161415612ad857612ad381612d90565b612b17565b8173ffffffffffffffffffffffffffffffffffffffff168373ffffffffffffffffffffffffffffffffffffffff1614612b1657612b158382612dd9565b5b5b600073ffffffffffffffffffffffffffffffffffffffff168273ffffffffffffffffffffffffffffffffffffffff161415612b5a57612b5581612f46565b612b99565b8273ffffffffffffffffffffffffffffffffffffffff168273ffffffffffffffffffffffffffffffffffffffff1614612b9857612b978282613089565b5b5b505050565b612ba88383613108565b612bb56000848484612bf9565b612bf4576040517f08c379a0000000000000000000000000000000000000000000000000000000008152600401612beb90613f48565b60405180910390fd5b505050565b6000612c1a8473ffffffffffffffffffffffffffffffffffffffff16611fd3565b15612d83578373ffffffffffffffffffffffffffffffffffffffff1663150b7a02612c436120cd565b8786866040518563ffffffff1660e01b8152600401612c659493929190613e5b565b602060405180830381600087803b158015612c7f57600080fd5b505af1925050508015612cb057506040513d601f19601f82011682018060405250810190612cad9190613753565b60015b612d33573d8060008114612ce0576040519150601f19603f3d011682016040523d82523d6000602084013e612ce5565b606091505b50600081511415612d2b576040517f08c379a0000000000000000000000000000000000000000000000000000000008152600401612d2290613f48565b60405180910390fd5b805181602001fd5b63150b7a0260e01b7bffffffffffffffffffffffffffffffffffffffffffffffffffffffff1916817bffffffffffffffffffffffffffffffffffffffffffffffffffffffff191614915050612d88565b600190505b949350505050565b6008805490506009600083815260200190815260200160002081905550600881908060018154018082558091505060019003906000526020600020016000909190919091505550565b60006001612de684611796565b612df091906143c6565b9050600060076000848152602001908152602001600020549050818114612ed5576000600660008673ffffffffffffffffffffffffffffffffffffffff1673ffffffffffffffffffffffffffffffffffffffff168152602001908152602001600020600084815260200190815260200160002054905080600660008773ffffffffffffffffffffffffffffffffffffffff1673ffffffffffffffffffffffffffffffffffffffff168152602001908152602001600020600084815260200190815260200160002081905550816007600083815260200190815260200160002081905550505b6007600084815260200190815260200160002060009055600660008573ffffffffffffffffffffffffffffffffffffffff1673ffffffffffffffffffffffffffffffffffffffff16815260200190815260200160002060008381526020019081526020016000206000905550505050565b60006001600880549050612f5a91906143c6565b9050600060096000848152602001908152602001600020549050600060088381548110612fb0577f4e487b7100000000000000000000000000000000000000000000000000000000600052603260045260246000fd5b906000526020600020015490508060088381548110612ff8577f4e487b7100000000000000000000000000000000000000000000000000000000600052603260045260246000fd5b90600052602060002001819055508160096000838152602001908152602001600020819055506009600085815260200190815260200160002060009055600880548061306d577f4e487b7100000000000000000000000000000000000000000000000000000000600052603160045260246000fd5b6001900381819060005260206000200160009055905550505050565b600061309483611796565b905081600660008573ffffffffffffffffffffffffffffffffffffffff1673ffffffffffffffffffffffffffffffffffffffff168152602001908152602001600020600083815260200190815260200160002081905550806007600084815260200190815260200160002081905550505050565b600073ffffffffffffffffffffffffffffffffffffffff168273ffffffffffffffffffffffffffffffffffffffff161415613178576040517f08c379a000000000000000000000000000000000000000000000000000000000815260040161316f90614068565b60405180910390fd5b613181816120d5565b156131c1576040517f08c379a00000000000000000000000000000000000000000000000000000000081526004016131b890613f88565b60405180910390fd5b6131cd60008383612a8a565b6001600360008473ffffffffffffffffffffffffffffffffffffffff1673ffffffffffffffffffffffffffffffffffffffff168152602001908152602001600020600082825461321d91906142e5565b92505081905550816002600083815260200190815260200160002060006101000a81548173ffffffffffffffffffffffffffffffffffffffff021916908373ffffffffffffffffffffffffffffffffffffffff160217905550808273ffffffffffffffffffffffffffffffffffffffff16600073ffffffffffffffffffffffffffffffffffffffff167fddf252ad1be2c89b69c2b068fc378daa952ba7f163c4a11628f55a4df523b3ef60405160405180910390a45050565b8280546132e2906144f8565b90600052602060002090601f016020900481019282613304576000855561334b565b82601f1061331d57805160ff191683800117855561334b565b8280016001018555821561334b579182015b8281111561334a57825182559160200191906001019061332f565b5b509050613358919061335c565b5090565b5b8082111561337557600081600090555060010161335d565b5090565b600061338c613387846141a8565b614183565b9050828152602081018484840111156133a457600080fd5b6133af8482856144b6565b509392505050565b60006133ca6133c5846141d9565b614183565b9050828152602081018484840111156133e257600080fd5b6133ed8482856144b6565b509392505050565b60008135905061340481614b98565b92915050565b60008135905061341981614baf565b92915050565b60008135905061342e81614bc6565b92915050565b60008135905061344381614bdd565b92915050565b60008151905061345881614bdd565b92915050565b600082601f83011261346f57600080fd5b813561347f848260208601613379565b91505092915050565b600082601f83011261349957600080fd5b81356134a98482602086016133b7565b91505092915050565b6000813590506134c181614bf4565b92915050565b6000602082840312156134d957600080fd5b60006134e7848285016133f5565b91505092915050565b6000806000806080858703121561350657600080fd5b60006135148782880161340a565b9450506020613525878288016134b2565b935050604085013567ffffffffffffffff81111561354257600080fd5b61354e87828801613488565b925050606085013567ffffffffffffffff81111561356b57600080fd5b61357787828801613488565b91505092959194509250565b6000806040838503121561359657600080fd5b60006135a4858286016133f5565b92505060206135b5858286016133f5565b9150509250929050565b6000806000606084860312156135d457600080fd5b60006135e2868287016133f5565b93505060206135f3868287016133f5565b9250506040613604868287016134b2565b9150509250925092565b6000806000806080858703121561362457600080fd5b6000613632878288016133f5565b9450506020613643878288016133f5565b9350506040613654878288016134b2565b925050606085013567ffffffffffffffff81111561367157600080fd5b61367d8782880161345e565b91505092959194509250565b6000806040838503121561369c57600080fd5b60006136aa858286016133f5565b92505060206136bb8582860161341f565b9150509250929050565b600080604083850312156136d857600080fd5b60006136e6858286016133f5565b92505060206136f7858286016134b2565b9150509250929050565b60006020828403121561371357600080fd5b60006137218482850161341f565b91505092915050565b60006020828403121561373c57600080fd5b600061374a84828501613434565b91505092915050565b60006020828403121561376557600080fd5b600061377384828501613449565b91505092915050565b60006020828403121561378e57600080fd5b600082013567ffffffffffffffff8111156137a857600080fd5b6137b484828501613488565b91505092915050565b6000602082840312156137cf57600080fd5b60006137dd848285016134b2565b91505092915050565b60006137f28383613cf2565b905092915050565b60006138068383613d82565b60208301905092915050565b61381b81614480565b82525050565b61382a816143fa565b82525050565b613839816143fa565b82525050565b600061384a8261423f565b6138548185614285565b9350836020820285016138668561420a565b8060005b858110156138a2578484038952815161388385826137e6565b945061388e8361426b565b925060208a0199505060018101905061386a565b50829750879550505050505092915050565b60006138bf8261424a565b6138c98185614296565b93506138d48361421a565b8060005b838110156139055781516138ec88826137fa565b97506138f783614278565b9250506001810190506138d8565b5085935050505092915050565b61391b8161441e565b82525050565b600061392c82614255565b61393681856142a7565b93506139468185602086016144c5565b61394f81614691565b840191505092915050565b600061396582614260565b61396f81856142b8565b935061397f8185602086016144c5565b61398881614691565b840191505092915050565b600061399e82614260565b6139a881856142c9565b93506139b88185602086016144c5565b6139c181614691565b840191505092915050565b60006139d782614260565b6139e181856142da565b93506139f18185602086016144c5565b80840191505092915050565b60008154613a0a816144f8565b613a1481866142da565b94506001821660008114613a2f5760018114613a4057613a73565b60ff19831686528186019350613a73565b613a498561422a565b60005b83811015613a6b57815481890152600182019150602081019050613a4c565b838801955050505b50505092915050565b6000613a89602b836142c9565b9150613a94826146a2565b604082019050919050565b6000613aac6032836142c9565b9150613ab7826146f1565b604082019050919050565b6000613acf6026836142c9565b9150613ada82614740565b604082019050919050565b6000613af2601c836142c9565b9150613afd8261478f565b602082019050919050565b6000613b156024836142c9565b9150613b20826147b8565b604082019050919050565b6000613b386019836142c9565b9150613b4382614807565b602082019050919050565b6000613b5b602c836142c9565b9150613b6682614830565b604082019050919050565b6000613b7e6038836142c9565b9150613b898261487f565b604082019050919050565b6000613ba1602a836142c9565b9150613bac826148ce565b604082019050919050565b6000613bc46029836142c9565b9150613bcf8261491d565b604082019050919050565b6000613be76020836142c9565b9150613bf28261496c565b602082019050919050565b6000613c0a602c836142c9565b9150613c1582614995565b604082019050919050565b6000613c2d6020836142c9565b9150613c38826149e4565b602082019050919050565b6000613c506029836142c9565b9150613c5b82614a0d565b604082019050919050565b6000613c73602f836142c9565b9150613c7e82614a5c565b604082019050919050565b6000613c966021836142c9565b9150613ca182614aab565b604082019050919050565b6000613cb96031836142c9565b9150613cc482614afa565b604082019050919050565b6000613cdc602c836142c9565b9150613ce782614b49565b604082019050919050565b600060c083016000830151613d0a6000860182613821565b506020830151613d1d6020860182613821565b506040830151613d306040860182613d82565b5060608301518482036060860152613d48828261395a565b9150506080830151613d5d6080860182613d82565b5060a083015184820360a0860152613d75828261395a565b9150508091505092915050565b613d8b81614476565b82525050565b613d9a81614476565b82525050565b6000613dac82866139cc565b9150613db882856139cc565b9150613dc482846139fd565b9150819050949350505050565b6000602082019050613de66000830184613830565b92915050565b600060c082019050613e016000830189613830565b613e0e6020830188613812565b613e1b6040830187613d91565b8181036060830152613e2d8186613993565b9050613e3c6080830185613d91565b81810360a0830152613e4e8184613993565b9050979650505050505050565b6000608082019050613e706000830187613830565b613e7d6020830186613830565b613e8a6040830185613d91565b8181036060830152613e9c8184613921565b905095945050505050565b60006020820190508181036000830152613ec1818461383f565b905092915050565b60006020820190508181036000830152613ee381846138b4565b905092915050565b6000602082019050613f006000830184613912565b92915050565b60006020820190508181036000830152613f208184613993565b905092915050565b60006020820190508181036000830152613f4181613a7c565b9050919050565b60006020820190508181036000830152613f6181613a9f565b9050919050565b60006020820190508181036000830152613f8181613ac2565b9050919050565b60006020820190508181036000830152613fa181613ae5565b9050919050565b60006020820190508181036000830152613fc181613b08565b9050919050565b60006020820190508181036000830152613fe181613b2b565b9050919050565b6000602082019050818103600083015261400181613b4e565b9050919050565b6000602082019050818103600083015261402181613b71565b9050919050565b6000602082019050818103600083015261404181613b94565b9050919050565b6000602082019050818103600083015261406181613bb7565b9050919050565b6000602082019050818103600083015261408181613bda565b9050919050565b600060208201905081810360008301526140a181613bfd565b9050919050565b600060208201905081810360008301526140c181613c20565b9050919050565b600060208201905081810360008301526140e181613c43565b9050919050565b6000602082019050818103600083015261410181613c66565b9050919050565b6000602082019050818103600083015261412181613c89565b9050919050565b6000602082019050818103600083015261414181613cac565b9050919050565b6000602082019050818103600083015261416181613ccf565b9050919050565b600060208201905061417d6000830184613d91565b92915050565b600061418d61419e565b9050614199828261452a565b919050565b6000604051905090565b600067ffffffffffffffff8211156141c3576141c2614662565b5b6141cc82614691565b9050602081019050919050565b600067ffffffffffffffff8211156141f4576141f3614662565b5b6141fd82614691565b9050602081019050919050565b6000819050602082019050919050565b6000819050602082019050919050565b60008190508160005260206000209050919050565b600081519050919050565b600081519050919050565b600081519050919050565b600081519050919050565b6000602082019050919050565b6000602082019050919050565b600082825260208201905092915050565b600082825260208201905092915050565b600082825260208201905092915050565b600082825260208201905092915050565b600082825260208201905092915050565b600081905092915050565b60006142f082614476565b91506142fb83614476565b9250827fffffffffffffffffffffffffffffffffffffffffffffffffffffffffffffffff038211156143305761432f6145d5565b5b828201905092915050565b600061434682614476565b915061435183614476565b92508261436157614360614604565b5b828204905092915050565b600061437782614476565b915061438283614476565b9250817fffffffffffffffffffffffffffffffffffffffffffffffffffffffffffffffff04831182151516156143bb576143ba6145d5565b5b828202905092915050565b60006143d182614476565b91506143dc83614476565b9250828210156143ef576143ee6145d5565b5b828203905092915050565b600061440582614456565b9050919050565b600061441782614456565b9050919050565b60008115159050919050565b60007fffffffff0000000000000000000000000000000000000000000000000000000082169050919050565b600073ffffffffffffffffffffffffffffffffffffffff82169050919050565b6000819050919050565b600061448b82614492565b9050919050565b600061449d826144a4565b9050919050565b60006144af82614456565b9050919050565b82818337600083830152505050565b60005b838110156144e35780820151818401526020810190506144c8565b838111156144f2576000848401525b50505050565b6000600282049050600182168061451057607f821691505b6020821081141561452457614523614633565b5b50919050565b61453382614691565b810181811067ffffffffffffffff8211171561455257614551614662565b5b80604052505050565b600061456682614476565b91507fffffffffffffffffffffffffffffffffffffffffffffffffffffffffffffffff821415614599576145986145d5565b5b600182019050919050565b60006145af82614476565b91506145ba83614476565b9250826145ca576145c9614604565b5b828206905092915050565b7f4e487b7100000000000000000000000000000000000000000000000000000000600052601160045260246000fd5b7f4e487b7100000000000000000000000000000000000000000000000000000000600052601260045260246000fd5b7f4e487b7100000000000000000000000000000000000000000000000000000000600052602260045260246000fd5b7f4e487b7100000000000000000000000000000000000000000000000000000000600052604160045260246000fd5b6000601f19601f8301169050919050565b7f455243373231456e756d657261626c653a206f776e657220696e646578206f7560008201527f74206f6620626f756e6473000000000000000000000000000000000000000000602082015250565b7f4552433732313a207472616e7366657220746f206e6f6e20455243373231526560008201527f63656976657220696d706c656d656e7465720000000000000000000000000000602082015250565b7f4f776e61626c653a206e6577206f776e657220697320746865207a65726f206160008201527f6464726573730000000000000000000000000000000000000000000000000000602082015250565b7f4552433732313a20746f6b656e20616c7265616479206d696e74656400000000600082015250565b7f4552433732313a207472616e7366657220746f20746865207a65726f2061646460008201527f7265737300000000000000000000000000000000000000000000000000000000602082015250565b7f4552433732313a20617070726f766520746f2063616c6c657200000000000000600082015250565b7f4552433732313a206f70657261746f7220717565727920666f72206e6f6e657860008201527f697374656e7420746f6b656e0000000000000000000000000000000000000000602082015250565b7f4552433732313a20617070726f76652063616c6c6572206973206e6f74206f7760008201527f6e6572206e6f7220617070726f76656420666f7220616c6c0000000000000000602082015250565b7f4552433732313a2062616c616e636520717565727920666f7220746865207a6560008201527f726f206164647265737300000000000000000000000000000000000000000000602082015250565b7f4552433732313a206f776e657220717565727920666f72206e6f6e657869737460008201527f656e7420746f6b656e0000000000000000000000000000000000000000000000602082015250565b7f4552433732313a206d696e7420746f20746865207a65726f2061646472657373600082015250565b7f4552433732313a20617070726f76656420717565727920666f72206e6f6e657860008201527f697374656e7420746f6b656e0000000000000000000000000000000000000000602082015250565b7f4f776e61626c653a2063616c6c6572206973206e6f7420746865206f776e6572600082015250565b7f4552433732313a207472616e73666572206f6620746f6b656e2074686174206960008201527f73206e6f74206f776e0000000000000000000000000000000000000000000000602082015250565b7f4552433732314d657461646174613a2055524920717565727920666f72206e6f60008201527f6e6578697374656e7420746f6b656e0000000000000000000000000000000000602082015250565b7f4552433732313a20617070726f76616c20746f2063757272656e74206f776e6560008201527f7200000000000000000000000000000000000000000000000000000000000000602082015250565b7f4552433732313a207472616e736665722063616c6c6572206973206e6f74206f60008201527f776e6572206e6f7220617070726f766564000000000000000000000000000000602082015250565b7f455243373231456e756d657261626c653a20676c6f62616c20696e646578206f60008201527f7574206f6620626f756e64730000000000000000000000000000000000000000602082015250565b614ba1816143fa565b8114614bac57600080fd5b50565b614bb88161440c565b8114614bc357600080fd5b50565b614bcf8161441e565b8114614bda57600080fd5b50565b614be68161442a565b8114614bf157600080fd5b50565b614bfd81614476565b8114614c0857600080fd5b5056fea26469706673582212201e4f57aede5aa7a07e30e997695f3bd9943fcf22d6badf37cd95e1263565fcd264736f6c6343000804003368747470733a2f2f6e66742d6d657461646174612d6a736f6e2e70686f746f766964656f323034362e776f726b6572732e6465762f",
  "linkReferences": {},
  "deployedLinkReferences": {}
}