{
  "_format": "hh-sol-artifact-1",
  "contractName": "GifToken",
  "sourceName": "contracts/GifToken.sol",
  "abi": [
    {
      "inputs": [],
      "stateMutability": "nonpayable",
      "type": "constructor"
    },
    {
      "anonymous": false,
      "inputs": [
        {
          "indexed": true,
          "internalType": "address",
          "name": "owner",
          "type": "address"
        },
        {
          "indexed": true,
          "internalType": "address",
          "name": "approved",
          "type": "address"
        },
        {
          "indexed": true,
          "internalType": "uint256",
          "name": "tokenId",
          "type": "uint256"
        }
      ],
      "name": "Approval",
      "type": "event"
    },
    {
      "anonymous": false,
      "inputs": [
        {
          "indexed": true,
          "internalType": "address",
          "name": "owner",
          "type": "address"
        },
        {
          "indexed": true,
          "internalType": "address",
          "name": "operator",
          "type": "address"
        },
        {
          "indexed": false,
          "internalType": "bool",
          "name": "approved",
          "type": "bool"
        }
      ],
      "name": "ApprovalForAll",
      "type": "event"
    },
    {
      "anonymous": false,
      "inputs": [
        {
          "indexed": false,
          "internalType": "address",
          "name": "from",
          "type": "address"
        },
        {
          "indexed": false,
          "internalType": "address",
          "name": "receiver",
          "type": "address"
        },
        {
          "indexed": false,
          "internalType": "uint256",
          "name": "amount",
          "type": "uint256"
        },
        {
          "indexed": false,
          "internalType": "string",
          "name": "message",
          "type": "string"
        },
        {
          "indexed": false,
          "internalType": "uint256",
          "name": "timestamp",
          "type": "uint256"
        },
        {
          "indexed": false,
          "internalType": "string",
          "name": "keyword",
          "type": "string"
        },
        {
          "indexed": false,
          "internalType": "string",
          "name": "imageUrl",
          "type": "string"
        }
      ],
      "name": "EventAddToBlockchain",
      "type": "event"
    },
    {
      "anonymous": false,
      "inputs": [
        {
          "indexed": true,
          "internalType": "address",
          "name": "previousOwner",
          "type": "address"
        },
        {
          "indexed": true,
          "internalType": "address",
          "name": "newOwner",
          "type": "address"
        }
      ],
      "name": "OwnershipTransferred",
      "type": "event"
    },
    {
      "anonymous": false,
      "inputs": [
        {
          "indexed": true,
          "internalType": "address",
          "name": "from",
          "type": "address"
        },
        {
          "indexed": true,
          "internalType": "address",
          "name": "to",
          "type": "address"
        },
        {
          "indexed": true,
          "internalType": "uint256",
          "name": "tokenId",
          "type": "uint256"
        }
      ],
      "name": "Transfer",
      "type": "event"
    },
    {
      "inputs": [
        {
          "internalType": "address payable",
          "name": "receiver",
          "type": "address"
        },
        {
          "internalType": "uint256",
          "name": "amount",
          "type": "uint256"
        },
        {
          "internalType": "string",
          "name": "message",
          "type": "string"
        },
        {
          "internalType": "string",
          "name": "keyword",
          "type": "string"
        },
        {
          "internalType": "string",
          "name": "imageUrl",
          "type": "string"
        }
      ],
      "name": "addToBlockchain",
      "outputs": [],
      "stateMutability": "nonpayable",
      "type": "function"
    },
    {
      "inputs": [
        {
          "internalType": "address",
          "name": "to",
          "type": "address"
        },
        {
          "internalType": "uint256",
          "name": "tokenId",
          "type": "uint256"
        }
      ],
      "name": "approve",
      "outputs": [],
      "stateMutability": "nonpayable",
      "type": "function"
    },
    {
      "inputs": [
        {
          "internalType": "address",
          "name": "owner",
          "type": "address"
        }
      ],
      "name": "balanceOf",
      "outputs": [
        {
          "internalType": "uint256",
          "name": "",
          "type": "uint256"
        }
      ],
      "stateMutability": "view",
      "type": "function"
    },
    {
      "inputs": [],
      "name": "baseExtension",
      "outputs": [
        {
          "internalType": "string",
          "name": "",
          "type": "string"
        }
      ],
      "stateMutability": "view",
      "type": "function"
    },
    {
      "inputs": [],
      "name": "baseURI",
      "outputs": [
        {
          "internalType": "string",
          "name": "",
          "type": "string"
        }
      ],
      "stateMutability": "view",
      "type": "function"
    },
    {
      "inputs": [],
      "name": "cost",
      "outputs": [
        {
          "internalType": "uint256",
          "name": "",
          "type": "uint256"
        }
      ],
      "stateMutability": "view",
      "type": "function"
    },
    {
      "inputs": [],
      "name": "getAllTransactions",
      "outputs": [
        {
          "components": [
            {
              "internalType": "address",
              "name": "sender",
              "type": "address"
            },
            {
              "internalType": "address",
              "name": "receiver",
              "type": "address"
            },
            {
              "internalType": "uint256",
              "name": "amount",
              "type": "uint256"
            },
            {
              "internalType": "string",
              "name": "message",
              "type": "string"
            },
            {
              "internalType": "uint256",
              "name": "timestamp",
              "type": "uint256"
            },
            {
              "internalType": "string",
              "name": "keyword",
              "type": "string"
            },
            {
              "internalType": "string",
              "name": "imageUrl",
              "type": "string"
            }
          ],
          "internalType": "struct GifToken.TransferStruct[]",
          "name": "",
          "type": "tuple[]"
        }
      ],
      "stateMutability": "view",
      "type": "function"
    },
    {
      "inputs": [
        {
          "internalType": "uint256",
          "name": "tokenId",
          "type": "uint256"
        }
      ],
      "name": "getApproved",
      "outputs": [
        {
          "internalType": "address",
          "name": "",
          "type": "address"
        }
      ],
      "stateMutability": "view",
      "type": "function"
    },
    {
      "inputs": [],
      "name": "getTransactionCount",
      "outputs": [
        {
          "internalType": "uint256",
          "name": "",
          "type": "uint256"
        }
      ],
      "stateMutability": "view",
      "type": "function"
    },
    {
      "inputs": [
        {
          "internalType": "address",
          "name": "owner",
          "type": "address"
        },
        {
          "internalType": "address",
          "name": "operator",
          "type": "address"
        }
      ],
      "name": "isApprovedForAll",
      "outputs": [
        {
          "internalType": "bool",
          "name": "",
          "type": "bool"
        }
      ],
      "stateMutability": "view",
      "type": "function"
    },
    {
      "inputs": [],
      "name": "maxMintAmount",
      "outputs": [
        {
          "internalType": "uint256",
          "name": "",
          "type": "uint256"
        }
      ],
      "stateMutability": "view",
      "type": "function"
    },
    {
      "inputs": [],
      "name": "maxSupply",
      "outputs": [
        {
          "internalType": "uint256",
          "name": "",
          "type": "uint256"
        }
      ],
      "stateMutability": "view",
      "type": "function"
    },
    {
      "inputs": [
        {
          "internalType": "address",
          "name": "_to",
          "type": "address"
        },
        {
          "internalType": "uint256",
          "name": "_mintAmount",
          "type": "uint256"
        }
      ],
      "name": "mint",
      "outputs": [],
      "stateMutability": "payable",
      "type": "function"
    },
    {
      "inputs": [],
      "name": "name",
      "outputs": [
        {
          "internalType": "string",
          "name": "",
          "type": "string"
        }
      ],
      "stateMutability": "view",
      "type": "function"
    },
    {
      "inputs": [],
      "name": "owner",
      "outputs": [
        {
          "internalType": "address",
          "name": "",
          "type": "address"
        }
      ],
      "stateMutability": "view",
      "type": "function"
    },
    {
      "inputs": [
        {
          "internalType": "uint256",
          "name": "tokenId",
          "type": "uint256"
        }
      ],
      "name": "ownerOf",
      "outputs": [
        {
          "internalType": "address",
          "name": "",
          "type": "address"
        }
      ],
      "stateMutability": "view",
      "type": "function"
    },
    {
      "inputs": [
        {
          "internalType": "bool",
          "name": "_state",
          "type": "bool"
        }
      ],
      "name": "pause",
      "outputs": [],
      "stateMutability": "nonpayable",
      "type": "function"
    },
    {
      "inputs": [],
      "name": "paused",
      "outputs": [
        {
          "internalType": "bool",
          "name": "",
          "type": "bool"
        }
      ],
      "stateMutability": "view",
      "type": "function"
    },
    {
      "inputs": [
        {
          "internalType": "address",
          "name": "_user",
          "type": "address"
        }
      ],
      "name": "removeWhitelistUser",
      "outputs": [],
      "stateMutability": "nonpayable",
      "type": "function"
    },
    {
      "inputs": [],
      "name": "renounceOwnership",
      "outputs": [],
      "stateMutability": "nonpayable",
      "type": "function"
    },
    {
      "inputs": [
        {
          "internalType": "address",
          "name": "from",
          "type": "address"
        },
        {
          "internalType": "address",
          "name": "to",
          "type": "address"
        },
        {
          "internalType": "uint256",
          "name": "tokenId",
          "type": "uint256"
        }
      ],
      "name": "safeTransferFrom",
      "outputs": [],
      "stateMutability": "nonpayable",
      "type": "function"
    },
    {
      "inputs": [
        {
          "internalType": "address",
          "name": "from",
          "type": "address"
        },
        {
          "internalType": "address",
          "name": "to",
          "type": "address"
        },
        {
          "internalType": "uint256",
          "name": "tokenId",
          "type": "uint256"
        },
        {
          "internalType": "bytes",
          "name": "_data",
          "type": "bytes"
        }
      ],
      "name": "safeTransferFrom",
      "outputs": [],
      "stateMutability": "nonpayable",
      "type": "function"
    },
    {
      "inputs": [
        {
          "internalType": "address",
          "name": "operator",
          "type": "address"
        },
        {
          "internalType": "bool",
          "name": "approved",
          "type": "bool"
        }
      ],
      "name": "setApprovalForAll",
      "outputs": [],
      "stateMutability": "nonpayable",
      "type": "function"
    },
    {
      "inputs": [
        {
          "internalType": "string",
          "name": "_newBaseExtension",
          "type": "string"
        }
      ],
      "name": "setBaseExtension",
      "outputs": [],
      "stateMutability": "nonpayable",
      "type": "function"
    },
    {
      "inputs": [
        {
          "internalType": "string",
          "name": "_newBaseURI",
          "type": "string"
        }
      ],
      "name": "setBaseURI",
      "outputs": [],
      "stateMutability": "nonpayable",
      "type": "function"
    },
    {
      "inputs": [
        {
          "internalType": "uint256",
          "name": "_newCost",
          "type": "uint256"
        }
      ],
      "name": "setCost",
      "outputs": [],
      "stateMutability": "nonpayable",
      "type": "function"
    },
    {
      "inputs": [
        {
          "internalType": "uint256",
          "name": "_newmaxMintAmount",
          "type": "uint256"
        }
      ],
      "name": "setmaxMintAmount",
      "outputs": [],
      "stateMutability": "nonpayable",
      "type": "function"
    },
    {
      "inputs": [
        {
          "internalType": "bytes4",
          "name": "interfaceId",
          "type": "bytes4"
        }
      ],
      "name": "supportsInterface",
      "outputs": [
        {
          "internalType": "bool",
          "name": "",
          "type": "bool"
        }
      ],
      "stateMutability": "view",
      "type": "function"
    },
    {
      "inputs": [],
      "name": "symbol",
      "outputs": [
        {
          "internalType": "string",
          "name": "",
          "type": "string"
        }
      ],
      "stateMutability": "view",
      "type": "function"
    },
    {
      "inputs": [
        {
          "internalType": "uint256",
          "name": "index",
          "type": "uint256"
        }
      ],
      "name": "tokenByIndex",
      "outputs": [
        {
          "internalType": "uint256",
          "name": "",
          "type": "uint256"
        }
      ],
      "stateMutability": "view",
      "type": "function"
    },
    {
      "inputs": [
        {
          "internalType": "address",
          "name": "owner",
          "type": "address"
        },
        {
          "internalType": "uint256",
          "name": "index",
          "type": "uint256"
        }
      ],
      "name": "tokenOfOwnerByIndex",
      "outputs": [
        {
          "internalType": "uint256",
          "name": "",
          "type": "uint256"
        }
      ],
      "stateMutability": "view",
      "type": "function"
    },
    {
      "inputs": [
        {
          "internalType": "uint256",
          "name": "tokenId",
          "type": "uint256"
        }
      ],
      "name": "tokenURI",
      "outputs": [
        {
          "internalType": "string",
          "name": "",
          "type": "string"
        }
      ],
      "stateMutability": "view",
      "type": "function"
    },
    {
      "inputs": [],
      "name": "totalSupply",
      "outputs": [
        {
          "internalType": "uint256",
          "name": "",
          "type": "uint256"
        }
      ],
      "stateMutability": "view",
      "type": "function"
    },
    {
      "inputs": [
        {
          "internalType": "address",
          "name": "from",
          "type": "address"
        },
        {
          "internalType": "address",
          "name": "to",
          "type": "address"
        },
        {
          "internalType": "uint256",
          "name": "tokenId",
          "type": "uint256"
        }
      ],
      "name": "transferFrom",
      "outputs": [],
      "stateMutability": "nonpayable",
      "type": "function"
    },
    {
      "inputs": [
        {
          "internalType": "address",
          "name": "newOwner",
          "type": "address"
        }
      ],
      "name": "transferOwnership",
      "outputs": [],
      "stateMutability": "nonpayable",
      "type": "function"
    },
    {
      "inputs": [
        {
          "internalType": "address",
          "name": "_owner",
          "type": "address"
        }
      ],
      "name": "walletOfOwner",
      "outputs": [
        {
          "internalType": "uint256[]",
          "name": "",
          "type": "uint256[]"
        }
      ],
      "stateMutability": "view",
      "type": "function"
    },
    {
      "inputs": [
        {
          "internalType": "address",
          "name": "_user",
          "type": "address"
        }
      ],
      "name": "whitelistUser",
      "outputs": [],
      "stateMutability": "nonpayable",
      "type": "function"
    },
    {
      "inputs": [
        {
          "internalType": "address",
          "name": "",
          "type": "address"
        }
      ],
      "name": "whitelisted",
      "outputs": [
        {
          "internalType": "bool",
          "name": "",
          "type": "bool"
        }
      ],
      "stateMutability": "view",
      "type": "function"
    },
    {
      "inputs": [],
      "name": "withdraw",
      "outputs": [],
      "stateMutability": "payable",
      "type": "function"
    }
  ],
  "bytecode": "0x60806040526040518060400160405280600581526020017f2e6a736f6e000000000000000000000000000000000000000000000000000000815250600c90805190602001906200005192919062000d8b565b50662386f26fc10000600d556103e8600e556014600f556000601060006101000a81548160ff0219169083151502179055503480156200009057600080fd5b506040518060400160405280600981526020017f504f432d4d2d47494600000000000000000000000000000000000000000000008152506040518060400160405280600481526020017f504d47310000000000000000000000000000000000000000000000000000000081525081600090805190602001906200011592919062000d8b565b5080600190805190602001906200012e92919062000d8b565b50505062000151620001456200019460201b60201c565b6200019c60201b60201c565b6200017b60405180606001604052806035815260200162006143603591396200026260201b60201c565b6200018e3360016200030d60201b60201c565b620013df565b600033905090565b6000600a60009054906101000a900473ffffffffffffffffffffffffffffffffffffffff16905081600a60006101000a81548173ffffffffffffffffffffffffffffffffffffffff021916908373ffffffffffffffffffffffffffffffffffffffff1602179055508173ffffffffffffffffffffffffffffffffffffffff168173ffffffffffffffffffffffffffffffffffffffff167f8be0079c531659141344cd1fd0a4f28419497f9722a3daafe3b4186f6b6457e060405160405180910390a35050565b620002726200019460201b60201c565b73ffffffffffffffffffffffffffffffffffffffff16620002986200033360201b60201c565b73ffffffffffffffffffffffffffffffffffffffff1614620002f1576040517f08c379a0000000000000000000000000000000000000000000000000000000008152600401620002e89062001080565b60405180910390fd5b80600b90805190602001906200030992919062000d8b565b5050565b6200032f8282604051806020016040528060008152506200035d60201b60201c565b5050565b6000600a60009054906101000a900473ffffffffffffffffffffffffffffffffffffffff16905090565b6200036f8383620003cb60201b60201c565b620003846000848484620005b160201b60201c565b620003c6576040517f08c379a0000000000000000000000000000000000000000000000000000000008152600401620003bd9062000ff8565b60405180910390fd5b505050565b600073ffffffffffffffffffffffffffffffffffffffff168273ffffffffffffffffffffffffffffffffffffffff1614156200043e576040517f08c379a000000000000000000000000000000000000000000000000000000000815260040162000435906200105e565b60405180910390fd5b6200044f816200076b60201b60201c565b1562000492576040517f08c379a000000000000000000000000000000000000000000000000000000000815260040162000489906200101a565b60405180910390fd5b620004a660008383620007d760201b60201c565b6001600360008473ffffffffffffffffffffffffffffffffffffffff1673ffffffffffffffffffffffffffffffffffffffff1681526020019081526020016000206000828254620004f89190620010cf565b92505081905550816002600083815260200190815260200160002060006101000a81548173ffffffffffffffffffffffffffffffffffffffff021916908373ffffffffffffffffffffffffffffffffffffffff160217905550808273ffffffffffffffffffffffffffffffffffffffff16600073ffffffffffffffffffffffffffffffffffffffff167fddf252ad1be2c89b69c2b068fc378daa952ba7f163c4a11628f55a4df523b3ef60405160405180910390a45050565b6000620005df8473ffffffffffffffffffffffffffffffffffffffff166200091e60201b6200208b1760201c565b156200075e578373ffffffffffffffffffffffffffffffffffffffff1663150b7a02620006116200019460201b60201c565b8786866040518563ffffffff1660e01b815260040162000635949392919062000fa4565b602060405180830381600087803b1580156200065057600080fd5b505af19250505080156200068457506040513d601f19601f8201168201806040525081019062000681919062000e52565b60015b6200070d573d8060008114620006b7576040519150601f19603f3d011682016040523d82523d6000602084013e620006bc565b606091505b5060008151141562000705576040517f08c379a0000000000000000000000000000000000000000000000000000000008152600401620006fc9062000ff8565b60405180910390fd5b805181602001fd5b63150b7a0260e01b7bffffffffffffffffffffffffffffffffffffffffffffffffffffffff1916817bffffffffffffffffffffffffffffffffffffffffffffffffffffffff19161491505062000763565b600190505b949350505050565b60008073ffffffffffffffffffffffffffffffffffffffff166002600084815260200190815260200160002060009054906101000a900473ffffffffffffffffffffffffffffffffffffffff1673ffffffffffffffffffffffffffffffffffffffff1614159050919050565b620007ef8383836200093160201b6200209e1760201c565b600073ffffffffffffffffffffffffffffffffffffffff168373ffffffffffffffffffffffffffffffffffffffff1614156200083c5762000836816200093660201b60201c565b62000884565b8173ffffffffffffffffffffffffffffffffffffffff168373ffffffffffffffffffffffffffffffffffffffff161462000883576200088283826200097f60201b60201c565b5b5b600073ffffffffffffffffffffffffffffffffffffffff168273ffffffffffffffffffffffffffffffffffffffff161415620008d157620008cb8162000afc60201b60201c565b62000919565b8273ffffffffffffffffffffffffffffffffffffffff168273ffffffffffffffffffffffffffffffffffffffff1614620009185762000917828262000c4460201b60201c565b5b5b505050565b600080823b905060008111915050919050565b505050565b6008805490506009600083815260200190815260200160002081905550600881908060018154018082558091505060019003906000526020600020016000909190919091505550565b60006001620009998462000cd060201b620018281760201c565b620009a591906200112c565b905060006007600084815260200190815260200160002054905081811462000a8b576000600660008673ffffffffffffffffffffffffffffffffffffffff1673ffffffffffffffffffffffffffffffffffffffff168152602001908152602001600020600084815260200190815260200160002054905080600660008773ffffffffffffffffffffffffffffffffffffffff1673ffffffffffffffffffffffffffffffffffffffff168152602001908152602001600020600084815260200190815260200160002081905550816007600083815260200190815260200160002081905550505b6007600084815260200190815260200160002060009055600660008573ffffffffffffffffffffffffffffffffffffffff1673ffffffffffffffffffffffffffffffffffffffff16815260200190815260200160002060008381526020019081526020016000206000905550505050565b6000600160088054905062000b1291906200112c565b905060006009600084815260200190815260200160002054905060006008838154811062000b69577f4e487b7100000000000000000000000000000000000000000000000000000000600052603260045260246000fd5b90600052602060002001549050806008838154811062000bb2577f4e487b7100000000000000000000000000000000000000000000000000000000600052603260045260246000fd5b90600052602060002001819055508160096000838152602001908152602001600020819055506009600085815260200190815260200160002060009055600880548062000c28577f4e487b7100000000000000000000000000000000000000000000000000000000600052603160045260246000fd5b6001900381819060005260206000200160009055905550505050565b600062000c5c8362000cd060201b620018281760201c565b905081600660008573ffffffffffffffffffffffffffffffffffffffff1673ffffffffffffffffffffffffffffffffffffffff168152602001908152602001600020600083815260200190815260200160002081905550806007600084815260200190815260200160002081905550505050565b60008073ffffffffffffffffffffffffffffffffffffffff168273ffffffffffffffffffffffffffffffffffffffff16141562000d44576040517f08c379a000000000000000000000000000000000000000000000000000000000815260040162000d3b906200103c565b60405180910390fd5b600360008373ffffffffffffffffffffffffffffffffffffffff1673ffffffffffffffffffffffffffffffffffffffff168152602001908152602001600020549050919050565b82805462000d999062001207565b90600052602060002090601f01602090048101928262000dbd576000855562000e09565b82601f1062000dd857805160ff191683800117855562000e09565b8280016001018555821562000e09579182015b8281111562000e0857825182559160200191906001019062000deb565b5b50905062000e18919062000e1c565b5090565b5b8082111562000e3757600081600090555060010162000e1d565b5090565b60008151905062000e4c81620013c5565b92915050565b60006020828403121562000e6557600080fd5b600062000e758482850162000e3b565b91505092915050565b62000e898162001167565b82525050565b600062000e9c82620010a2565b62000ea88185620010ad565b935062000eba818560208601620011d1565b62000ec5816200129b565b840191505092915050565b600062000edf603283620010be565b915062000eec82620012ac565b604082019050919050565b600062000f06601c83620010be565b915062000f1382620012fb565b602082019050919050565b600062000f2d602a83620010be565b915062000f3a8262001324565b604082019050919050565b600062000f54602083620010be565b915062000f618262001373565b602082019050919050565b600062000f7b602083620010be565b915062000f88826200139c565b602082019050919050565b62000f9e81620011c7565b82525050565b600060808201905062000fbb600083018762000e7e565b62000fca602083018662000e7e565b62000fd9604083018562000f93565b818103606083015262000fed818462000e8f565b905095945050505050565b60006020820190508181036000830152620010138162000ed0565b9050919050565b60006020820190508181036000830152620010358162000ef7565b9050919050565b60006020820190508181036000830152620010578162000f1e565b9050919050565b60006020820190508181036000830152620010798162000f45565b9050919050565b600060208201905081810360008301526200109b8162000f6c565b9050919050565b600081519050919050565b600082825260208201905092915050565b600082825260208201905092915050565b6000620010dc82620011c7565b9150620010e983620011c7565b9250827fffffffffffffffffffffffffffffffffffffffffffffffffffffffffffffffff038211156200112157620011206200123d565b5b828201905092915050565b60006200113982620011c7565b91506200114683620011c7565b9250828210156200115c576200115b6200123d565b5b828203905092915050565b60006200117482620011a7565b9050919050565b60007fffffffff0000000000000000000000000000000000000000000000000000000082169050919050565b600073ffffffffffffffffffffffffffffffffffffffff82169050919050565b6000819050919050565b60005b83811015620011f1578082015181840152602081019050620011d4565b8381111562001201576000848401525b50505050565b600060028204905060018216806200122057607f821691505b602082108114156200123757620012366200126c565b5b50919050565b7f4e487b7100000000000000000000000000000000000000000000000000000000600052601160045260246000fd5b7f4e487b7100000000000000000000000000000000000000000000000000000000600052602260045260246000fd5b6000601f19601f8301169050919050565b7f4552433732313a207472616e7366657220746f206e6f6e20455243373231526560008201527f63656976657220696d706c656d656e7465720000000000000000000000000000602082015250565b7f4552433732313a20746f6b656e20616c7265616479206d696e74656400000000600082015250565b7f4552433732313a2062616c616e636520717565727920666f7220746865207a6560008201527f726f206164647265737300000000000000000000000000000000000000000000602082015250565b7f4552433732313a206d696e7420746f20746865207a65726f2061646472657373600082015250565b7f4f776e61626c653a2063616c6c6572206973206e6f7420746865206f776e6572600082015250565b620013d0816200117b565b8114620013dc57600080fd5b50565b614d5480620013ef6000396000f3fe6080604052600436106102305760003560e01c80634f6ccce71161012e578063a22cb465116100ab578063d5abeb011161006f578063d5abeb011461081f578063d936547e1461084a578063da3ef23f14610887578063e985e9c5146108b0578063f2fde38b146108ed57610230565b8063a22cb4651461073c578063b88d4fde14610765578063be9863a31461078e578063c6682862146107b7578063c87b56dd146107e257610230565b806370a08231116100f257806370a0823114610669578063715018a6146106a65780637f00c7a6146106bd5780638da5cb5b146106e657806395d89b411461071157610230565b80634f6ccce71461057057806355f804b3146105ad5780635c975abb146105d65780636352211e146106015780636c0360eb1461063e57610230565b806327506f53116101bc57806340c10f191161018057806340c10f191461049c57806342842e0e146104b8578063438b6300146104e157806344a0d68a1461051e5780634a4c560d1461054757610230565b806327506f53146103d65780632e7700f0146104015780632f745c591461042c57806330cc7ae0146104695780633ccfd60b1461049257610230565b8063095ea7b311610203578063095ea7b31461030357806313faede61461032c57806318160ddd14610357578063239c70ae1461038257806323b872dd146103ad57610230565b806301ffc9a71461023557806302329a291461027257806306fdde031461029b578063081812fc146102c6575b600080fd5b34801561024157600080fd5b5061025c6004803603810190610257919061380e565b610916565b6040516102699190613ffe565b60405180910390f35b34801561027e57600080fd5b50610299600480360381019061029491906137e5565b610990565b005b3480156102a757600080fd5b506102b0610a29565b6040516102bd9190614019565b60405180910390f35b3480156102d257600080fd5b506102ed60048036038101906102e891906138a1565b610abb565b6040516102fa9190613ecf565b60405180910390f35b34801561030f57600080fd5b5061032a600480360381019061032591906137a9565b610b40565b005b34801561033857600080fd5b50610341610c58565b60405161034e919061427b565b60405180910390f35b34801561036357600080fd5b5061036c610c5e565b604051610379919061427b565b60405180910390f35b34801561038e57600080fd5b50610397610c6b565b6040516103a4919061427b565b60405180910390f35b3480156103b957600080fd5b506103d460048036038101906103cf91906136a3565b610c71565b005b3480156103e257600080fd5b506103eb610cd1565b6040516103f89190613fba565b60405180910390f35b34801561040d57600080fd5b50610416610fa6565b604051610423919061427b565b60405180910390f35b34801561043857600080fd5b50610453600480360381019061044e91906137a9565b610fb0565b604051610460919061427b565b60405180910390f35b34801561047557600080fd5b50610490600480360381019061048b919061357f565b611055565b005b61049a61112c565b005b6104b660048036038101906104b191906137a9565b6111e8565b005b3480156104c457600080fd5b506104df60048036038101906104da91906136a3565b611331565b005b3480156104ed57600080fd5b506105086004803603810190610503919061357f565b611351565b6040516105159190613fdc565b60405180910390f35b34801561052a57600080fd5b50610545600480360381019061054091906138a1565b61144b565b005b34801561055357600080fd5b5061056e6004803603810190610569919061357f565b6114d1565b005b34801561057c57600080fd5b50610597600480360381019061059291906138a1565b6115a8565b6040516105a4919061427b565b60405180910390f35b3480156105b957600080fd5b506105d460048036038101906105cf9190613860565b61163f565b005b3480156105e257600080fd5b506105eb6116d5565b6040516105f89190613ffe565b60405180910390f35b34801561060d57600080fd5b50610628600480360381019061062391906138a1565b6116e8565b6040516106359190613ecf565b60405180910390f35b34801561064a57600080fd5b5061065361179a565b6040516106609190614019565b60405180910390f35b34801561067557600080fd5b50610690600480360381019061068b919061357f565b611828565b60405161069d919061427b565b60405180910390f35b3480156106b257600080fd5b506106bb6118e0565b005b3480156106c957600080fd5b506106e460048036038101906106df91906138a1565b611968565b005b3480156106f257600080fd5b506106fb6119ee565b6040516107089190613ecf565b60405180910390f35b34801561071d57600080fd5b50610726611a18565b6040516107339190614019565b60405180910390f35b34801561074857600080fd5b50610763600480360381019061075e919061376d565b611aaa565b005b34801561077157600080fd5b5061078c600480360381019061078791906136f2565b611ac0565b005b34801561079a57600080fd5b506107b560048036038101906107b091906135a8565b611b22565b005b3480156107c357600080fd5b506107cc611d0b565b6040516107d99190614019565b60405180910390f35b3480156107ee57600080fd5b50610809600480360381019061080491906138a1565b611d99565b6040516108169190614019565b60405180910390f35b34801561082b57600080fd5b50610834611e43565b604051610841919061427b565b60405180910390f35b34801561085657600080fd5b50610871600480360381019061086c919061357f565b611e49565b60405161087e9190613ffe565b60405180910390f35b34801561089357600080fd5b506108ae60048036038101906108a99190613860565b611e69565b005b3480156108bc57600080fd5b506108d760048036038101906108d29190613667565b611eff565b6040516108e49190613ffe565b60405180910390f35b3480156108f957600080fd5b50610914600480360381019061090f919061357f565b611f93565b005b60007f780e9d63000000000000000000000000000000000000000000000000000000007bffffffffffffffffffffffffffffffffffffffffffffffffffffffff1916827bffffffffffffffffffffffffffffffffffffffffffffffffffffffff191614806109895750610988826120a3565b5b9050919050565b610998612185565b73ffffffffffffffffffffffffffffffffffffffff166109b66119ee565b73ffffffffffffffffffffffffffffffffffffffff1614610a0c576040517f08c379a0000000000000000000000000000000000000000000000000000000008152600401610a03906141bb565b60405180910390fd5b80601060006101000a81548160ff02191690831515021790555050565b606060008054610a389061460b565b80601f0160208091040260200160405190810160405280929190818152602001828054610a649061460b565b8015610ab15780601f10610a8657610100808354040283529160200191610ab1565b820191906000526020600020905b815481529060010190602001808311610a9457829003601f168201915b5050505050905090565b6000610ac68261218d565b610b05576040517f08c379a0000000000000000000000000000000000000000000000000000000008152600401610afc9061419b565b60405180910390fd5b6004600083815260200190815260200160002060009054906101000a900473ffffffffffffffffffffffffffffffffffffffff169050919050565b6000610b4b826116e8565b90508073ffffffffffffffffffffffffffffffffffffffff168373ffffffffffffffffffffffffffffffffffffffff161415610bbc576040517f08c379a0000000000000000000000000000000000000000000000000000000008152600401610bb39061421b565b60405180910390fd5b8073ffffffffffffffffffffffffffffffffffffffff16610bdb612185565b73ffffffffffffffffffffffffffffffffffffffff161480610c0a5750610c0981610c04612185565b611eff565b5b610c49576040517f08c379a0000000000000000000000000000000000000000000000000000000008152600401610c409061411b565b60405180910390fd5b610c5383836121f9565b505050565b600d5481565b6000600880549050905090565b600f5481565b610c82610c7c612185565b826122b2565b610cc1576040517f08c379a0000000000000000000000000000000000000000000000000000000008152600401610cb89061423b565b60405180910390fd5b610ccc838383612390565b505050565b60606013805480602002602001604051908101604052809291908181526020016000905b82821015610f9d57838290600052602060002090600702016040518060e00160405290816000820160009054906101000a900473ffffffffffffffffffffffffffffffffffffffff1673ffffffffffffffffffffffffffffffffffffffff1673ffffffffffffffffffffffffffffffffffffffff1681526020016001820160009054906101000a900473ffffffffffffffffffffffffffffffffffffffff1673ffffffffffffffffffffffffffffffffffffffff1673ffffffffffffffffffffffffffffffffffffffff16815260200160028201548152602001600382018054610dde9061460b565b80601f0160208091040260200160405190810160405280929190818152602001828054610e0a9061460b565b8015610e575780601f10610e2c57610100808354040283529160200191610e57565b820191906000526020600020905b815481529060010190602001808311610e3a57829003601f168201915b5050505050815260200160048201548152602001600582018054610e7a9061460b565b80601f0160208091040260200160405190810160405280929190818152602001828054610ea69061460b565b8015610ef35780601f10610ec857610100808354040283529160200191610ef3565b820191906000526020600020905b815481529060010190602001808311610ed657829003601f168201915b50505050508152602001600682018054610f0c9061460b565b80601f0160208091040260200160405190810160405280929190818152602001828054610f389061460b565b8015610f855780601f10610f5a57610100808354040283529160200191610f85565b820191906000526020600020905b815481529060010190602001808311610f6857829003601f168201915b50505050508152505081526020019060010190610cf5565b50505050905090565b6000601254905090565b6000610fbb83611828565b8210610ffc576040517f08c379a0000000000000000000000000000000000000000000000000000000008152600401610ff39061403b565b60405180910390fd5b600660008473ffffffffffffffffffffffffffffffffffffffff1673ffffffffffffffffffffffffffffffffffffffff168152602001908152602001600020600083815260200190815260200160002054905092915050565b61105d612185565b73ffffffffffffffffffffffffffffffffffffffff1661107b6119ee565b73ffffffffffffffffffffffffffffffffffffffff16146110d1576040517f08c379a00000000000000000000000000000000000000000000000000000000081526004016110c8906141bb565b60405180910390fd5b6000601160008373ffffffffffffffffffffffffffffffffffffffff1673ffffffffffffffffffffffffffffffffffffffff16815260200190815260200160002060006101000a81548160ff02191690831515021790555050565b611134612185565b73ffffffffffffffffffffffffffffffffffffffff166111526119ee565b73ffffffffffffffffffffffffffffffffffffffff16146111a8576040517f08c379a000000000000000000000000000000000000000000000000000000000815260040161119f906141bb565b60405180910390fd5b3373ffffffffffffffffffffffffffffffffffffffff166108fc479081150290604051600060405180830381858888f193505050506111e657600080fd5b565b60006111f2610c5e565b9050339250601060009054906101000a900460ff161561121157600080fd5b6000821161121e57600080fd5b600f5482111561122d57600080fd5b600e54828261123c91906143f8565b111561124757600080fd5b61124f6119ee565b73ffffffffffffffffffffffffffffffffffffffff163373ffffffffffffffffffffffffffffffffffffffff16146112f55760011515601160003373ffffffffffffffffffffffffffffffffffffffff1673ffffffffffffffffffffffffffffffffffffffff16815260200190815260200160002060009054906101000a900460ff161515146112f45781600d546112e7919061447f565b3410156112f357600080fd5b5b5b6000600190505b82811161132b5761131884828461131391906143f8565b6125ec565b80806113239061466e565b9150506112fc565b50505050565b61134c83838360405180602001604052806000815250611ac0565b505050565b6060600061135e83611828565b905060008167ffffffffffffffff8111156113a2577f4e487b7100000000000000000000000000000000000000000000000000000000600052604160045260246000fd5b6040519080825280602002602001820160405280156113d05781602001602082028036833780820191505090505b50905060005b82811015611440576113e88582610fb0565b828281518110611421577f4e487b7100000000000000000000000000000000000000000000000000000000600052603260045260246000fd5b60200260200101818152505080806114389061466e565b9150506113d6565b508092505050919050565b611453612185565b73ffffffffffffffffffffffffffffffffffffffff166114716119ee565b73ffffffffffffffffffffffffffffffffffffffff16146114c7576040517f08c379a00000000000000000000000000000000000000000000000000000000081526004016114be906141bb565b60405180910390fd5b80600d8190555050565b6114d9612185565b73ffffffffffffffffffffffffffffffffffffffff166114f76119ee565b73ffffffffffffffffffffffffffffffffffffffff161461154d576040517f08c379a0000000000000000000000000000000000000000000000000000000008152600401611544906141bb565b60405180910390fd5b6001601160008373ffffffffffffffffffffffffffffffffffffffff1673ffffffffffffffffffffffffffffffffffffffff16815260200190815260200160002060006101000a81548160ff02191690831515021790555050565b60006115b2610c5e565b82106115f3576040517f08c379a00000000000000000000000000000000000000000000000000000000081526004016115ea9061425b565b60405180910390fd5b6008828154811061162d577f4e487b7100000000000000000000000000000000000000000000000000000000600052603260045260246000fd5b90600052602060002001549050919050565b611647612185565b73ffffffffffffffffffffffffffffffffffffffff166116656119ee565b73ffffffffffffffffffffffffffffffffffffffff16146116bb576040517f08c379a00000000000000000000000000000000000000000000000000000000081526004016116b2906141bb565b60405180910390fd5b80600b90805190602001906116d192919061338e565b5050565b601060009054906101000a900460ff1681565b6000806002600084815260200190815260200160002060009054906101000a900473ffffffffffffffffffffffffffffffffffffffff169050600073ffffffffffffffffffffffffffffffffffffffff168173ffffffffffffffffffffffffffffffffffffffff161415611791576040517f08c379a00000000000000000000000000000000000000000000000000000000081526004016117889061415b565b60405180910390fd5b80915050919050565b600b80546117a79061460b565b80601f01602080910402602001604051908101604052809291908181526020018280546117d39061460b565b80156118205780601f106117f557610100808354040283529160200191611820565b820191906000526020600020905b81548152906001019060200180831161180357829003601f168201915b505050505081565b60008073ffffffffffffffffffffffffffffffffffffffff168273ffffffffffffffffffffffffffffffffffffffff161415611899576040517f08c379a00000000000000000000000000000000000000000000000000000000081526004016118909061413b565b60405180910390fd5b600360008373ffffffffffffffffffffffffffffffffffffffff1673ffffffffffffffffffffffffffffffffffffffff168152602001908152602001600020549050919050565b6118e8612185565b73ffffffffffffffffffffffffffffffffffffffff166119066119ee565b73ffffffffffffffffffffffffffffffffffffffff161461195c576040517f08c379a0000000000000000000000000000000000000000000000000000000008152600401611953906141bb565b60405180910390fd5b611966600061260a565b565b611970612185565b73ffffffffffffffffffffffffffffffffffffffff1661198e6119ee565b73ffffffffffffffffffffffffffffffffffffffff16146119e4576040517f08c379a00000000000000000000000000000000000000000000000000000000081526004016119db906141bb565b60405180910390fd5b80600f8190555050565b6000600a60009054906101000a900473ffffffffffffffffffffffffffffffffffffffff16905090565b606060018054611a279061460b565b80601f0160208091040260200160405190810160405280929190818152602001828054611a539061460b565b8015611aa05780601f10611a7557610100808354040283529160200191611aa0565b820191906000526020600020905b815481529060010190602001808311611a8357829003601f168201915b5050505050905090565b611abc611ab5612185565b83836126d0565b5050565b611ad1611acb612185565b836122b2565b611b10576040517f08c379a0000000000000000000000000000000000000000000000000000000008152600401611b079061423b565b60405180910390fd5b611b1c8484848461283d565b50505050565b600160126000828254611b3591906143f8565b9250508190555060136040518060e001604052803373ffffffffffffffffffffffffffffffffffffffff1681526020018773ffffffffffffffffffffffffffffffffffffffff16815260200186815260200185815260200142815260200184815260200183815250908060018154018082558091505060019003906000526020600020906007020160009091909190915060008201518160000160006101000a81548173ffffffffffffffffffffffffffffffffffffffff021916908373ffffffffffffffffffffffffffffffffffffffff16021790555060208201518160010160006101000a81548173ffffffffffffffffffffffffffffffffffffffff021916908373ffffffffffffffffffffffffffffffffffffffff160217905550604082015181600201556060820151816003019080519060200190611c7a92919061338e565b506080820151816004015560a0820151816005019080519060200190611ca192919061338e565b5060c0820151816006019080519060200190611cbe92919061338e565b5050507f0d4e88a530890db0ba251aac53b5bca8b614cb0b6aff4f5b377f6a9821c373ee33868686428787604051611cfc9796959493929190613eea565b60405180910390a15050505050565b600c8054611d189061460b565b80601f0160208091040260200160405190810160405280929190818152602001828054611d449061460b565b8015611d915780601f10611d6657610100808354040283529160200191611d91565b820191906000526020600020905b815481529060010190602001808311611d7457829003601f168201915b505050505081565b6060611da48261218d565b611de3576040517f08c379a0000000000000000000000000000000000000000000000000000000008152600401611dda906141fb565b60405180910390fd5b6000611ded612899565b90506000815111611e0d5760405180602001604052806000815250611e3b565b80611e178461292b565b600c604051602001611e2b93929190613e9e565b6040516020818303038152906040525b915050919050565b600e5481565b60116020528060005260406000206000915054906101000a900460ff1681565b611e71612185565b73ffffffffffffffffffffffffffffffffffffffff16611e8f6119ee565b73ffffffffffffffffffffffffffffffffffffffff1614611ee5576040517f08c379a0000000000000000000000000000000000000000000000000000000008152600401611edc906141bb565b60405180910390fd5b80600c9080519060200190611efb92919061338e565b5050565b6000600560008473ffffffffffffffffffffffffffffffffffffffff1673ffffffffffffffffffffffffffffffffffffffff16815260200190815260200160002060008373ffffffffffffffffffffffffffffffffffffffff1673ffffffffffffffffffffffffffffffffffffffff16815260200190815260200160002060009054906101000a900460ff16905092915050565b611f9b612185565b73ffffffffffffffffffffffffffffffffffffffff16611fb96119ee565b73ffffffffffffffffffffffffffffffffffffffff161461200f576040517f08c379a0000000000000000000000000000000000000000000000000000000008152600401612006906141bb565b60405180910390fd5b600073ffffffffffffffffffffffffffffffffffffffff168173ffffffffffffffffffffffffffffffffffffffff16141561207f576040517f08c379a00000000000000000000000000000000000000000000000000000000081526004016120769061407b565b60405180910390fd5b6120888161260a565b50565b600080823b905060008111915050919050565b505050565b60007f80ac58cd000000000000000000000000000000000000000000000000000000007bffffffffffffffffffffffffffffffffffffffffffffffffffffffff1916827bffffffffffffffffffffffffffffffffffffffffffffffffffffffff1916148061216e57507f5b5e139f000000000000000000000000000000000000000000000000000000007bffffffffffffffffffffffffffffffffffffffffffffffffffffffff1916827bffffffffffffffffffffffffffffffffffffffffffffffffffffffff1916145b8061217e575061217d82612ad8565b5b9050919050565b600033905090565b60008073ffffffffffffffffffffffffffffffffffffffff166002600084815260200190815260200160002060009054906101000a900473ffffffffffffffffffffffffffffffffffffffff1673ffffffffffffffffffffffffffffffffffffffff1614159050919050565b816004600083815260200190815260200160002060006101000a81548173ffffffffffffffffffffffffffffffffffffffff021916908373ffffffffffffffffffffffffffffffffffffffff160217905550808273ffffffffffffffffffffffffffffffffffffffff1661226c836116e8565b73ffffffffffffffffffffffffffffffffffffffff167f8c5be1e5ebec7d5bd14f71427d1e84f3dd0314c0f7b2291e5b200ac8c7c3b92560405160405180910390a45050565b60006122bd8261218d565b6122fc576040517f08c379a00000000000000000000000000000000000000000000000000000000081526004016122f3906140fb565b60405180910390fd5b6000612307836116e8565b90508073ffffffffffffffffffffffffffffffffffffffff168473ffffffffffffffffffffffffffffffffffffffff16148061237657508373ffffffffffffffffffffffffffffffffffffffff1661235e84610abb565b73ffffffffffffffffffffffffffffffffffffffff16145b8061238757506123868185611eff565b5b91505092915050565b8273ffffffffffffffffffffffffffffffffffffffff166123b0826116e8565b73ffffffffffffffffffffffffffffffffffffffff1614612406576040517f08c379a00000000000000000000000000000000000000000000000000000000081526004016123fd906141db565b60405180910390fd5b600073ffffffffffffffffffffffffffffffffffffffff168273ffffffffffffffffffffffffffffffffffffffff161415612476576040517f08c379a000000000000000000000000000000000000000000000000000000000815260040161246d906140bb565b60405180910390fd5b612481838383612b42565b61248c6000826121f9565b6001600360008573ffffffffffffffffffffffffffffffffffffffff1673ffffffffffffffffffffffffffffffffffffffff16815260200190815260200160002060008282546124dc91906144d9565b925050819055506001600360008473ffffffffffffffffffffffffffffffffffffffff1673ffffffffffffffffffffffffffffffffffffffff168152602001908152602001600020600082825461253391906143f8565b92505081905550816002600083815260200190815260200160002060006101000a81548173ffffffffffffffffffffffffffffffffffffffff021916908373ffffffffffffffffffffffffffffffffffffffff160217905550808273ffffffffffffffffffffffffffffffffffffffff168473ffffffffffffffffffffffffffffffffffffffff167fddf252ad1be2c89b69c2b068fc378daa952ba7f163c4a11628f55a4df523b3ef60405160405180910390a4505050565b612606828260405180602001604052806000815250612c56565b5050565b6000600a60009054906101000a900473ffffffffffffffffffffffffffffffffffffffff16905081600a60006101000a81548173ffffffffffffffffffffffffffffffffffffffff021916908373ffffffffffffffffffffffffffffffffffffffff1602179055508173ffffffffffffffffffffffffffffffffffffffff168173ffffffffffffffffffffffffffffffffffffffff167f8be0079c531659141344cd1fd0a4f28419497f9722a3daafe3b4186f6b6457e060405160405180910390a35050565b8173ffffffffffffffffffffffffffffffffffffffff168373ffffffffffffffffffffffffffffffffffffffff16141561273f576040517f08c379a0000000000000000000000000000000000000000000000000000000008152600401612736906140db565b60405180910390fd5b80600560008573ffffffffffffffffffffffffffffffffffffffff1673ffffffffffffffffffffffffffffffffffffffff16815260200190815260200160002060008473ffffffffffffffffffffffffffffffffffffffff1673ffffffffffffffffffffffffffffffffffffffff16815260200190815260200160002060006101000a81548160ff0219169083151502179055508173ffffffffffffffffffffffffffffffffffffffff168373ffffffffffffffffffffffffffffffffffffffff167f17307eab39ab6107e8899845ad3d59bd9653f200f220920489ca2b5937696c31836040516128309190613ffe565b60405180910390a3505050565b612848848484612390565b61285484848484612cb1565b612893576040517f08c379a000000000000000000000000000000000000000000000000000000000815260040161288a9061405b565b60405180910390fd5b50505050565b6060600b80546128a89061460b565b80601f01602080910402602001604051908101604052809291908181526020018280546128d49061460b565b80156129215780601f106128f657610100808354040283529160200191612921565b820191906000526020600020905b81548152906001019060200180831161290457829003601f168201915b5050505050905090565b60606000821415612973576040518060400160405280600181526020017f30000000000000000000000000000000000000000000000000000000000000008152509050612ad3565b600082905060005b600082146129a557808061298e9061466e565b915050600a8261299e919061444e565b915061297b565b60008167ffffffffffffffff8111156129e7577f4e487b7100000000000000000000000000000000000000000000000000000000600052604160045260246000fd5b6040519080825280601f01601f191660200182016040528015612a195781602001600182028036833780820191505090505b5090505b60008514612acc57600182612a3291906144d9565b9150600a85612a4191906146b7565b6030612a4d91906143f8565b60f81b818381518110612a89577f4e487b7100000000000000000000000000000000000000000000000000000000600052603260045260246000fd5b60200101907effffffffffffffffffffffffffffffffffffffffffffffffffffffffffffff1916908160001a905350600a85612ac5919061444e565b9450612a1d565b8093505050505b919050565b60007f01ffc9a7000000000000000000000000000000000000000000000000000000007bffffffffffffffffffffffffffffffffffffffffffffffffffffffff1916827bffffffffffffffffffffffffffffffffffffffffffffffffffffffff1916149050919050565b612b4d83838361209e565b600073ffffffffffffffffffffffffffffffffffffffff168373ffffffffffffffffffffffffffffffffffffffff161415612b9057612b8b81612e48565b612bcf565b8173ffffffffffffffffffffffffffffffffffffffff168373ffffffffffffffffffffffffffffffffffffffff1614612bce57612bcd8382612e91565b5b5b600073ffffffffffffffffffffffffffffffffffffffff168273ffffffffffffffffffffffffffffffffffffffff161415612c1257612c0d81612ffe565b612c51565b8273ffffffffffffffffffffffffffffffffffffffff168273ffffffffffffffffffffffffffffffffffffffff1614612c5057612c4f8282613141565b5b5b505050565b612c6083836131c0565b612c6d6000848484612cb1565b612cac576040517f08c379a0000000000000000000000000000000000000000000000000000000008152600401612ca39061405b565b60405180910390fd5b505050565b6000612cd28473ffffffffffffffffffffffffffffffffffffffff1661208b565b15612e3b578373ffffffffffffffffffffffffffffffffffffffff1663150b7a02612cfb612185565b8786866040518563ffffffff1660e01b8152600401612d1d9493929190613f6e565b602060405180830381600087803b158015612d3757600080fd5b505af1925050508015612d6857506040513d601f19601f82011682018060405250810190612d659190613837565b60015b612deb573d8060008114612d98576040519150601f19603f3d011682016040523d82523d6000602084013e612d9d565b606091505b50600081511415612de3576040517f08c379a0000000000000000000000000000000000000000000000000000000008152600401612dda9061405b565b60405180910390fd5b805181602001fd5b63150b7a0260e01b7bffffffffffffffffffffffffffffffffffffffffffffffffffffffff1916817bffffffffffffffffffffffffffffffffffffffffffffffffffffffff191614915050612e40565b600190505b949350505050565b6008805490506009600083815260200190815260200160002081905550600881908060018154018082558091505060019003906000526020600020016000909190919091505550565b60006001612e9e84611828565b612ea891906144d9565b9050600060076000848152602001908152602001600020549050818114612f8d576000600660008673ffffffffffffffffffffffffffffffffffffffff1673ffffffffffffffffffffffffffffffffffffffff168152602001908152602001600020600084815260200190815260200160002054905080600660008773ffffffffffffffffffffffffffffffffffffffff1673ffffffffffffffffffffffffffffffffffffffff168152602001908152602001600020600084815260200190815260200160002081905550816007600083815260200190815260200160002081905550505b6007600084815260200190815260200160002060009055600660008573ffffffffffffffffffffffffffffffffffffffff1673ffffffffffffffffffffffffffffffffffffffff16815260200190815260200160002060008381526020019081526020016000206000905550505050565b6000600160088054905061301291906144d9565b9050600060096000848152602001908152602001600020549050600060088381548110613068577f4e487b7100000000000000000000000000000000000000000000000000000000600052603260045260246000fd5b9060005260206000200154905080600883815481106130b0577f4e487b7100000000000000000000000000000000000000000000000000000000600052603260045260246000fd5b906000526020600020018190555081600960008381526020019081526020016000208190555060096000858152602001908152602001600020600090556008805480613125577f4e487b7100000000000000000000000000000000000000000000000000000000600052603160045260246000fd5b6001900381819060005260206000200160009055905550505050565b600061314c83611828565b905081600660008573ffffffffffffffffffffffffffffffffffffffff1673ffffffffffffffffffffffffffffffffffffffff168152602001908152602001600020600083815260200190815260200160002081905550806007600084815260200190815260200160002081905550505050565b600073ffffffffffffffffffffffffffffffffffffffff168273ffffffffffffffffffffffffffffffffffffffff161415613230576040517f08c379a00000000000000000000000000000000000000000000000000000000081526004016132279061417b565b60405180910390fd5b6132398161218d565b15613279576040517f08c379a00000000000000000000000000000000000000000000000000000000081526004016132709061409b565b60405180910390fd5b61328560008383612b42565b6001600360008473ffffffffffffffffffffffffffffffffffffffff1673ffffffffffffffffffffffffffffffffffffffff16815260200190815260200160002060008282546132d591906143f8565b92505081905550816002600083815260200190815260200160002060006101000a81548173ffffffffffffffffffffffffffffffffffffffff021916908373ffffffffffffffffffffffffffffffffffffffff160217905550808273ffffffffffffffffffffffffffffffffffffffff16600073ffffffffffffffffffffffffffffffffffffffff167fddf252ad1be2c89b69c2b068fc378daa952ba7f163c4a11628f55a4df523b3ef60405160405180910390a45050565b82805461339a9061460b565b90600052602060002090601f0160209004810192826133bc5760008555613403565b82601f106133d557805160ff1916838001178555613403565b82800160010185558215613403579182015b828111156134025782518255916020019190600101906133e7565b5b5090506134109190613414565b5090565b5b8082111561342d576000816000905550600101613415565b5090565b600061344461343f846142bb565b614296565b90508281526020810184848401111561345c57600080fd5b6134678482856145c9565b509392505050565b600061348261347d846142ec565b614296565b90508281526020810184848401111561349a57600080fd5b6134a58482856145c9565b509392505050565b6000813590506134bc81614cab565b92915050565b6000813590506134d181614cc2565b92915050565b6000813590506134e681614cd9565b92915050565b6000813590506134fb81614cf0565b92915050565b60008151905061351081614cf0565b92915050565b600082601f83011261352757600080fd5b8135613537848260208601613431565b91505092915050565b600082601f83011261355157600080fd5b813561356184826020860161346f565b91505092915050565b60008135905061357981614d07565b92915050565b60006020828403121561359157600080fd5b600061359f848285016134ad565b91505092915050565b600080600080600060a086880312156135c057600080fd5b60006135ce888289016134c2565b95505060206135df8882890161356a565b945050604086013567ffffffffffffffff8111156135fc57600080fd5b61360888828901613540565b935050606086013567ffffffffffffffff81111561362557600080fd5b61363188828901613540565b925050608086013567ffffffffffffffff81111561364e57600080fd5b61365a88828901613540565b9150509295509295909350565b6000806040838503121561367a57600080fd5b6000613688858286016134ad565b9250506020613699858286016134ad565b9150509250929050565b6000806000606084860312156136b857600080fd5b60006136c6868287016134ad565b93505060206136d7868287016134ad565b92505060406136e88682870161356a565b9150509250925092565b6000806000806080858703121561370857600080fd5b6000613716878288016134ad565b9450506020613727878288016134ad565b93505060406137388782880161356a565b925050606085013567ffffffffffffffff81111561375557600080fd5b61376187828801613516565b91505092959194509250565b6000806040838503121561378057600080fd5b600061378e858286016134ad565b925050602061379f858286016134d7565b9150509250929050565b600080604083850312156137bc57600080fd5b60006137ca858286016134ad565b92505060206137db8582860161356a565b9150509250929050565b6000602082840312156137f757600080fd5b6000613805848285016134d7565b91505092915050565b60006020828403121561382057600080fd5b600061382e848285016134ec565b91505092915050565b60006020828403121561384957600080fd5b600061385784828501613501565b91505092915050565b60006020828403121561387257600080fd5b600082013567ffffffffffffffff81111561388c57600080fd5b61389884828501613540565b91505092915050565b6000602082840312156138b357600080fd5b60006138c18482850161356a565b91505092915050565b60006138d68383613dd6565b905092915050565b60006138ea8383613e80565b60208301905092915050565b6138ff81614593565b82525050565b61390e8161450d565b82525050565b61391d8161450d565b82525050565b600061392e82614352565b6139388185614398565b93508360208202850161394a8561431d565b8060005b85811015613986578484038952815161396785826138ca565b94506139728361437e565b925060208a0199505060018101905061394e565b50829750879550505050505092915050565b60006139a38261435d565b6139ad81856143a9565b93506139b88361432d565b8060005b838110156139e95781516139d088826138de565b97506139db8361438b565b9250506001810190506139bc565b5085935050505092915050565b6139ff81614531565b82525050565b6000613a1082614368565b613a1a81856143ba565b9350613a2a8185602086016145d8565b613a33816147a4565b840191505092915050565b6000613a4982614373565b613a5381856143cb565b9350613a638185602086016145d8565b613a6c816147a4565b840191505092915050565b6000613a8282614373565b613a8c81856143dc565b9350613a9c8185602086016145d8565b613aa5816147a4565b840191505092915050565b6000613abb82614373565b613ac581856143ed565b9350613ad58185602086016145d8565b80840191505092915050565b60008154613aee8161460b565b613af881866143ed565b94506001821660008114613b135760018114613b2457613b57565b60ff19831686528186019350613b57565b613b2d8561433d565b60005b83811015613b4f57815481890152600182019150602081019050613b30565b838801955050505b50505092915050565b6000613b6d602b836143dc565b9150613b78826147b5565b604082019050919050565b6000613b906032836143dc565b9150613b9b82614804565b604082019050919050565b6000613bb36026836143dc565b9150613bbe82614853565b604082019050919050565b6000613bd6601c836143dc565b9150613be1826148a2565b602082019050919050565b6000613bf96024836143dc565b9150613c04826148cb565b604082019050919050565b6000613c1c6019836143dc565b9150613c278261491a565b602082019050919050565b6000613c3f602c836143dc565b9150613c4a82614943565b604082019050919050565b6000613c626038836143dc565b9150613c6d82614992565b604082019050919050565b6000613c85602a836143dc565b9150613c90826149e1565b604082019050919050565b6000613ca86029836143dc565b9150613cb382614a30565b604082019050919050565b6000613ccb6020836143dc565b9150613cd682614a7f565b602082019050919050565b6000613cee602c836143dc565b9150613cf982614aa8565b604082019050919050565b6000613d116020836143dc565b9150613d1c82614af7565b602082019050919050565b6000613d346029836143dc565b9150613d3f82614b20565b604082019050919050565b6000613d57602f836143dc565b9150613d6282614b6f565b604082019050919050565b6000613d7a6021836143dc565b9150613d8582614bbe565b604082019050919050565b6000613d9d6031836143dc565b9150613da882614c0d565b604082019050919050565b6000613dc0602c836143dc565b9150613dcb82614c5c565b604082019050919050565b600060e083016000830151613dee6000860182613905565b506020830151613e016020860182613905565b506040830151613e146040860182613e80565b5060608301518482036060860152613e2c8282613a3e565b9150506080830151613e416080860182613e80565b5060a083015184820360a0860152613e598282613a3e565b91505060c083015184820360c0860152613e738282613a3e565b9150508091505092915050565b613e8981614589565b82525050565b613e9881614589565b82525050565b6000613eaa8286613ab0565b9150613eb68285613ab0565b9150613ec28284613ae1565b9150819050949350505050565b6000602082019050613ee46000830184613914565b92915050565b600060e082019050613eff600083018a613914565b613f0c60208301896138f6565b613f196040830188613e8f565b8181036060830152613f2b8187613a77565b9050613f3a6080830186613e8f565b81810360a0830152613f4c8185613a77565b905081810360c0830152613f608184613a77565b905098975050505050505050565b6000608082019050613f836000830187613914565b613f906020830186613914565b613f9d6040830185613e8f565b8181036060830152613faf8184613a05565b905095945050505050565b60006020820190508181036000830152613fd48184613923565b905092915050565b60006020820190508181036000830152613ff68184613998565b905092915050565b600060208201905061401360008301846139f6565b92915050565b600060208201905081810360008301526140338184613a77565b905092915050565b6000602082019050818103600083015261405481613b60565b9050919050565b6000602082019050818103600083015261407481613b83565b9050919050565b6000602082019050818103600083015261409481613ba6565b9050919050565b600060208201905081810360008301526140b481613bc9565b9050919050565b600060208201905081810360008301526140d481613bec565b9050919050565b600060208201905081810360008301526140f481613c0f565b9050919050565b6000602082019050818103600083015261411481613c32565b9050919050565b6000602082019050818103600083015261413481613c55565b9050919050565b6000602082019050818103600083015261415481613c78565b9050919050565b6000602082019050818103600083015261417481613c9b565b9050919050565b6000602082019050818103600083015261419481613cbe565b9050919050565b600060208201905081810360008301526141b481613ce1565b9050919050565b600060208201905081810360008301526141d481613d04565b9050919050565b600060208201905081810360008301526141f481613d27565b9050919050565b6000602082019050818103600083015261421481613d4a565b9050919050565b6000602082019050818103600083015261423481613d6d565b9050919050565b6000602082019050818103600083015261425481613d90565b9050919050565b6000602082019050818103600083015261427481613db3565b9050919050565b60006020820190506142906000830184613e8f565b92915050565b60006142a06142b1565b90506142ac828261463d565b919050565b6000604051905090565b600067ffffffffffffffff8211156142d6576142d5614775565b5b6142df826147a4565b9050602081019050919050565b600067ffffffffffffffff82111561430757614306614775565b5b614310826147a4565b9050602081019050919050565b6000819050602082019050919050565b6000819050602082019050919050565b60008190508160005260206000209050919050565b600081519050919050565b600081519050919050565b600081519050919050565b600081519050919050565b6000602082019050919050565b6000602082019050919050565b600082825260208201905092915050565b600082825260208201905092915050565b600082825260208201905092915050565b600082825260208201905092915050565b600082825260208201905092915050565b600081905092915050565b600061440382614589565b915061440e83614589565b9250827fffffffffffffffffffffffffffffffffffffffffffffffffffffffffffffffff03821115614443576144426146e8565b5b828201905092915050565b600061445982614589565b915061446483614589565b92508261447457614473614717565b5b828204905092915050565b600061448a82614589565b915061449583614589565b9250817fffffffffffffffffffffffffffffffffffffffffffffffffffffffffffffffff04831182151516156144ce576144cd6146e8565b5b828202905092915050565b60006144e482614589565b91506144ef83614589565b925082821015614502576145016146e8565b5b828203905092915050565b600061451882614569565b9050919050565b600061452a82614569565b9050919050565b60008115159050919050565b60007fffffffff0000000000000000000000000000000000000000000000000000000082169050919050565b600073ffffffffffffffffffffffffffffffffffffffff82169050919050565b6000819050919050565b600061459e826145a5565b9050919050565b60006145b0826145b7565b9050919050565b60006145c282614569565b9050919050565b82818337600083830152505050565b60005b838110156145f65780820151818401526020810190506145db565b83811115614605576000848401525b50505050565b6000600282049050600182168061462357607f821691505b6020821081141561463757614636614746565b5b50919050565b614646826147a4565b810181811067ffffffffffffffff8211171561466557614664614775565b5b80604052505050565b600061467982614589565b91507fffffffffffffffffffffffffffffffffffffffffffffffffffffffffffffffff8214156146ac576146ab6146e8565b5b600182019050919050565b60006146c282614589565b91506146cd83614589565b9250826146dd576146dc614717565b5b828206905092915050565b7f4e487b7100000000000000000000000000000000000000000000000000000000600052601160045260246000fd5b7f4e487b7100000000000000000000000000000000000000000000000000000000600052601260045260246000fd5b7f4e487b7100000000000000000000000000000000000000000000000000000000600052602260045260246000fd5b7f4e487b7100000000000000000000000000000000000000000000000000000000600052604160045260246000fd5b6000601f19601f8301169050919050565b7f455243373231456e756d657261626c653a206f776e657220696e646578206f7560008201527f74206f6620626f756e6473000000000000000000000000000000000000000000602082015250565b7f4552433732313a207472616e7366657220746f206e6f6e20455243373231526560008201527f63656976657220696d706c656d656e7465720000000000000000000000000000602082015250565b7f4f776e61626c653a206e6577206f776e657220697320746865207a65726f206160008201527f6464726573730000000000000000000000000000000000000000000000000000602082015250565b7f4552433732313a20746f6b656e20616c7265616479206d696e74656400000000600082015250565b7f4552433732313a207472616e7366657220746f20746865207a65726f2061646460008201527f7265737300000000000000000000000000000000000000000000000000000000602082015250565b7f4552433732313a20617070726f766520746f2063616c6c657200000000000000600082015250565b7f4552433732313a206f70657261746f7220717565727920666f72206e6f6e657860008201527f697374656e7420746f6b656e0000000000000000000000000000000000000000602082015250565b7f4552433732313a20617070726f76652063616c6c6572206973206e6f74206f7760008201527f6e6572206e6f7220617070726f76656420666f7220616c6c0000000000000000602082015250565b7f4552433732313a2062616c616e636520717565727920666f7220746865207a6560008201527f726f206164647265737300000000000000000000000000000000000000000000602082015250565b7f4552433732313a206f776e657220717565727920666f72206e6f6e657869737460008201527f656e7420746f6b656e0000000000000000000000000000000000000000000000602082015250565b7f4552433732313a206d696e7420746f20746865207a65726f2061646472657373600082015250565b7f4552433732313a20617070726f76656420717565727920666f72206e6f6e657860008201527f697374656e7420746f6b656e0000000000000000000000000000000000000000602082015250565b7f4f776e61626c653a2063616c6c6572206973206e6f7420746865206f776e6572600082015250565b7f4552433732313a207472616e73666572206f6620746f6b656e2074686174206960008201527f73206e6f74206f776e0000000000000000000000000000000000000000000000602082015250565b7f4552433732314d657461646174613a2055524920717565727920666f72206e6f60008201527f6e6578697374656e7420746f6b656e0000000000000000000000000000000000602082015250565b7f4552433732313a20617070726f76616c20746f2063757272656e74206f776e6560008201527f7200000000000000000000000000000000000000000000000000000000000000602082015250565b7f4552433732313a207472616e736665722063616c6c6572206973206e6f74206f60008201527f776e6572206e6f7220617070726f766564000000000000000000000000000000602082015250565b7f455243373231456e756d657261626c653a20676c6f62616c20696e646578206f60008201527f7574206f6620626f756e64730000000000000000000000000000000000000000602082015250565b614cb48161450d565b8114614cbf57600080fd5b50565b614ccb8161451f565b8114614cd657600080fd5b50565b614ce281614531565b8114614ced57600080fd5b50565b614cf98161453d565b8114614d0457600080fd5b50565b614d1081614589565b8114614d1b57600080fd5b5056fea264697066735822122006b1f8387c969cf55835945b1fb19f9ab1717c28fac0b96f0e98909e2c9a6b9064736f6c6343000804003368747470733a2f2f6e66742d6d657461646174612d6a736f6e2e70686f746f766964656f323034362e776f726b6572732e6465762f",
  "linkReferences": {},
  "deployedLinkReferences": {}
}