{
  "_format": "hh-sol-artifact-1",
  "contractName": "GifToken",
  "sourceName": "contracts/GifToken.sol",
  "abi": [
    {
      "inputs": [],
      "stateMutability": "nonpayable",
      "type": "constructor"
    },
    {
      "anonymous": false,
      "inputs": [
        {
          "indexed": true,
          "internalType": "address",
          "name": "owner",
          "type": "address"
        },
        {
          "indexed": true,
          "internalType": "address",
          "name": "approved",
          "type": "address"
        },
        {
          "indexed": true,
          "internalType": "uint256",
          "name": "tokenId",
          "type": "uint256"
        }
      ],
      "name": "Approval",
      "type": "event"
    },
    {
      "anonymous": false,
      "inputs": [
        {
          "indexed": true,
          "internalType": "address",
          "name": "owner",
          "type": "address"
        },
        {
          "indexed": true,
          "internalType": "address",
          "name": "operator",
          "type": "address"
        },
        {
          "indexed": false,
          "internalType": "bool",
          "name": "approved",
          "type": "bool"
        }
      ],
      "name": "ApprovalForAll",
      "type": "event"
    },
    {
      "anonymous": false,
      "inputs": [
        {
          "indexed": false,
          "internalType": "address",
          "name": "from",
          "type": "address"
        },
        {
          "indexed": false,
          "internalType": "address",
          "name": "receiver",
          "type": "address"
        },
        {
          "indexed": false,
          "internalType": "uint256",
          "name": "amount",
          "type": "uint256"
        },
        {
          "indexed": false,
          "internalType": "string",
          "name": "message",
          "type": "string"
        },
        {
          "indexed": false,
          "internalType": "uint256",
          "name": "timestamp",
          "type": "uint256"
        },
        {
          "indexed": false,
          "internalType": "string",
          "name": "keyword",
          "type": "string"
        },
        {
          "indexed": false,
          "internalType": "string",
          "name": "imageUrl",
          "type": "string"
        }
      ],
      "name": "EventAddToBlockchain",
      "type": "event"
    },
    {
      "anonymous": false,
      "inputs": [
        {
          "indexed": true,
          "internalType": "address",
          "name": "previousOwner",
          "type": "address"
        },
        {
          "indexed": true,
          "internalType": "address",
          "name": "newOwner",
          "type": "address"
        }
      ],
      "name": "OwnershipTransferred",
      "type": "event"
    },
    {
      "anonymous": false,
      "inputs": [
        {
          "indexed": true,
          "internalType": "address",
          "name": "from",
          "type": "address"
        },
        {
          "indexed": true,
          "internalType": "address",
          "name": "to",
          "type": "address"
        },
        {
          "indexed": true,
          "internalType": "uint256",
          "name": "tokenId",
          "type": "uint256"
        }
      ],
      "name": "Transfer",
      "type": "event"
    },
    {
      "inputs": [
        {
          "internalType": "address payable",
          "name": "receiver",
          "type": "address"
        },
        {
          "internalType": "uint256",
          "name": "amount",
          "type": "uint256"
        },
        {
          "internalType": "string",
          "name": "message",
          "type": "string"
        },
        {
          "internalType": "string",
          "name": "keyword",
          "type": "string"
        },
        {
          "internalType": "string",
          "name": "imageUrl",
          "type": "string"
        }
      ],
      "name": "addToBlockchain",
      "outputs": [],
      "stateMutability": "nonpayable",
      "type": "function"
    },
    {
      "inputs": [
        {
          "internalType": "address",
          "name": "to",
          "type": "address"
        },
        {
          "internalType": "uint256",
          "name": "tokenId",
          "type": "uint256"
        }
      ],
      "name": "approve",
      "outputs": [],
      "stateMutability": "nonpayable",
      "type": "function"
    },
    {
      "inputs": [
        {
          "internalType": "address",
          "name": "owner",
          "type": "address"
        }
      ],
      "name": "balanceOf",
      "outputs": [
        {
          "internalType": "uint256",
          "name": "",
          "type": "uint256"
        }
      ],
      "stateMutability": "view",
      "type": "function"
    },
    {
      "inputs": [],
      "name": "baseExtension",
      "outputs": [
        {
          "internalType": "string",
          "name": "",
          "type": "string"
        }
      ],
      "stateMutability": "view",
      "type": "function"
    },
    {
      "inputs": [],
      "name": "baseURI",
      "outputs": [
        {
          "internalType": "string",
          "name": "",
          "type": "string"
        }
      ],
      "stateMutability": "view",
      "type": "function"
    },
    {
      "inputs": [],
      "name": "cost",
      "outputs": [
        {
          "internalType": "uint256",
          "name": "",
          "type": "uint256"
        }
      ],
      "stateMutability": "view",
      "type": "function"
    },
    {
      "inputs": [],
      "name": "getAllTransactions",
      "outputs": [
        {
          "components": [
            {
              "internalType": "address",
              "name": "sender",
              "type": "address"
            },
            {
              "internalType": "address",
              "name": "receiver",
              "type": "address"
            },
            {
              "internalType": "uint256",
              "name": "amount",
              "type": "uint256"
            },
            {
              "internalType": "string",
              "name": "message",
              "type": "string"
            },
            {
              "internalType": "uint256",
              "name": "timestamp",
              "type": "uint256"
            },
            {
              "internalType": "string",
              "name": "keyword",
              "type": "string"
            },
            {
              "internalType": "string",
              "name": "imageUrl",
              "type": "string"
            }
          ],
          "internalType": "struct GifToken.TransferStruct[]",
          "name": "",
          "type": "tuple[]"
        }
      ],
      "stateMutability": "view",
      "type": "function"
    },
    {
      "inputs": [
        {
          "internalType": "uint256",
          "name": "tokenId",
          "type": "uint256"
        }
      ],
      "name": "getApproved",
      "outputs": [
        {
          "internalType": "address",
          "name": "",
          "type": "address"
        }
      ],
      "stateMutability": "view",
      "type": "function"
    },
    {
      "inputs": [],
      "name": "getTransactionCount",
      "outputs": [
        {
          "internalType": "uint256",
          "name": "",
          "type": "uint256"
        }
      ],
      "stateMutability": "view",
      "type": "function"
    },
    {
      "inputs": [
        {
          "internalType": "address",
          "name": "owner",
          "type": "address"
        },
        {
          "internalType": "address",
          "name": "operator",
          "type": "address"
        }
      ],
      "name": "isApprovedForAll",
      "outputs": [
        {
          "internalType": "bool",
          "name": "",
          "type": "bool"
        }
      ],
      "stateMutability": "view",
      "type": "function"
    },
    {
      "inputs": [],
      "name": "maxMintAmount",
      "outputs": [
        {
          "internalType": "uint256",
          "name": "",
          "type": "uint256"
        }
      ],
      "stateMutability": "view",
      "type": "function"
    },
    {
      "inputs": [],
      "name": "maxSupply",
      "outputs": [
        {
          "internalType": "uint256",
          "name": "",
          "type": "uint256"
        }
      ],
      "stateMutability": "view",
      "type": "function"
    },
    {
      "inputs": [
        {
          "internalType": "address",
          "name": "_to",
          "type": "address"
        },
        {
          "internalType": "uint256",
          "name": "_mintAmount",
          "type": "uint256"
        },
        {
          "internalType": "string",
          "name": "_url",
          "type": "string"
        }
      ],
      "name": "mint",
      "outputs": [],
      "stateMutability": "payable",
      "type": "function"
    },
    {
      "inputs": [],
      "name": "name",
      "outputs": [
        {
          "internalType": "string",
          "name": "",
          "type": "string"
        }
      ],
      "stateMutability": "view",
      "type": "function"
    },
    {
      "inputs": [],
      "name": "owner",
      "outputs": [
        {
          "internalType": "address",
          "name": "",
          "type": "address"
        }
      ],
      "stateMutability": "view",
      "type": "function"
    },
    {
      "inputs": [
        {
          "internalType": "uint256",
          "name": "tokenId",
          "type": "uint256"
        }
      ],
      "name": "ownerOf",
      "outputs": [
        {
          "internalType": "address",
          "name": "",
          "type": "address"
        }
      ],
      "stateMutability": "view",
      "type": "function"
    },
    {
      "inputs": [
        {
          "internalType": "bool",
          "name": "_state",
          "type": "bool"
        }
      ],
      "name": "pause",
      "outputs": [],
      "stateMutability": "nonpayable",
      "type": "function"
    },
    {
      "inputs": [],
      "name": "paused",
      "outputs": [
        {
          "internalType": "bool",
          "name": "",
          "type": "bool"
        }
      ],
      "stateMutability": "view",
      "type": "function"
    },
    {
      "inputs": [
        {
          "internalType": "address",
          "name": "_user",
          "type": "address"
        }
      ],
      "name": "removeWhitelistUser",
      "outputs": [],
      "stateMutability": "nonpayable",
      "type": "function"
    },
    {
      "inputs": [],
      "name": "renounceOwnership",
      "outputs": [],
      "stateMutability": "nonpayable",
      "type": "function"
    },
    {
      "inputs": [
        {
          "internalType": "address",
          "name": "from",
          "type": "address"
        },
        {
          "internalType": "address",
          "name": "to",
          "type": "address"
        },
        {
          "internalType": "uint256",
          "name": "tokenId",
          "type": "uint256"
        }
      ],
      "name": "safeTransferFrom",
      "outputs": [],
      "stateMutability": "nonpayable",
      "type": "function"
    },
    {
      "inputs": [
        {
          "internalType": "address",
          "name": "from",
          "type": "address"
        },
        {
          "internalType": "address",
          "name": "to",
          "type": "address"
        },
        {
          "internalType": "uint256",
          "name": "tokenId",
          "type": "uint256"
        },
        {
          "internalType": "bytes",
          "name": "_data",
          "type": "bytes"
        }
      ],
      "name": "safeTransferFrom",
      "outputs": [],
      "stateMutability": "nonpayable",
      "type": "function"
    },
    {
      "inputs": [
        {
          "internalType": "address",
          "name": "operator",
          "type": "address"
        },
        {
          "internalType": "bool",
          "name": "approved",
          "type": "bool"
        }
      ],
      "name": "setApprovalForAll",
      "outputs": [],
      "stateMutability": "nonpayable",
      "type": "function"
    },
    {
      "inputs": [
        {
          "internalType": "string",
          "name": "_newBaseExtension",
          "type": "string"
        }
      ],
      "name": "setBaseExtension",
      "outputs": [],
      "stateMutability": "nonpayable",
      "type": "function"
    },
    {
      "inputs": [
        {
          "internalType": "string",
          "name": "_newBaseURI",
          "type": "string"
        }
      ],
      "name": "setBaseURI",
      "outputs": [],
      "stateMutability": "nonpayable",
      "type": "function"
    },
    {
      "inputs": [
        {
          "internalType": "uint256",
          "name": "_newCost",
          "type": "uint256"
        }
      ],
      "name": "setCost",
      "outputs": [],
      "stateMutability": "nonpayable",
      "type": "function"
    },
    {
      "inputs": [
        {
          "internalType": "uint256",
          "name": "tokenId",
          "type": "uint256"
        },
        {
          "internalType": "string",
          "name": "_url",
          "type": "string"
        }
      ],
      "name": "setTokenURI",
      "outputs": [],
      "stateMutability": "nonpayable",
      "type": "function"
    },
    {
      "inputs": [
        {
          "internalType": "uint256",
          "name": "_newmaxMintAmount",
          "type": "uint256"
        }
      ],
      "name": "setmaxMintAmount",
      "outputs": [],
      "stateMutability": "nonpayable",
      "type": "function"
    },
    {
      "inputs": [
        {
          "internalType": "bytes4",
          "name": "interfaceId",
          "type": "bytes4"
        }
      ],
      "name": "supportsInterface",
      "outputs": [
        {
          "internalType": "bool",
          "name": "",
          "type": "bool"
        }
      ],
      "stateMutability": "view",
      "type": "function"
    },
    {
      "inputs": [],
      "name": "symbol",
      "outputs": [
        {
          "internalType": "string",
          "name": "",
          "type": "string"
        }
      ],
      "stateMutability": "view",
      "type": "function"
    },
    {
      "inputs": [
        {
          "internalType": "uint256",
          "name": "index",
          "type": "uint256"
        }
      ],
      "name": "tokenByIndex",
      "outputs": [
        {
          "internalType": "uint256",
          "name": "",
          "type": "uint256"
        }
      ],
      "stateMutability": "view",
      "type": "function"
    },
    {
      "inputs": [
        {
          "internalType": "address",
          "name": "owner",
          "type": "address"
        },
        {
          "internalType": "uint256",
          "name": "index",
          "type": "uint256"
        }
      ],
      "name": "tokenOfOwnerByIndex",
      "outputs": [
        {
          "internalType": "uint256",
          "name": "",
          "type": "uint256"
        }
      ],
      "stateMutability": "view",
      "type": "function"
    },
    {
      "inputs": [
        {
          "internalType": "uint256",
          "name": "tokenId",
          "type": "uint256"
        }
      ],
      "name": "tokenURI",
      "outputs": [
        {
          "internalType": "string",
          "name": "",
          "type": "string"
        }
      ],
      "stateMutability": "view",
      "type": "function"
    },
    {
      "inputs": [
        {
          "internalType": "uint256",
          "name": "",
          "type": "uint256"
        }
      ],
      "name": "tokenUrls",
      "outputs": [
        {
          "internalType": "string",
          "name": "",
          "type": "string"
        }
      ],
      "stateMutability": "view",
      "type": "function"
    },
    {
      "inputs": [],
      "name": "totalSupply",
      "outputs": [
        {
          "internalType": "uint256",
          "name": "",
          "type": "uint256"
        }
      ],
      "stateMutability": "view",
      "type": "function"
    },
    {
      "inputs": [
        {
          "internalType": "address",
          "name": "from",
          "type": "address"
        },
        {
          "internalType": "address",
          "name": "to",
          "type": "address"
        },
        {
          "internalType": "uint256",
          "name": "tokenId",
          "type": "uint256"
        }
      ],
      "name": "transferFrom",
      "outputs": [],
      "stateMutability": "nonpayable",
      "type": "function"
    },
    {
      "inputs": [
        {
          "internalType": "address",
          "name": "newOwner",
          "type": "address"
        }
      ],
      "name": "transferOwnership",
      "outputs": [],
      "stateMutability": "nonpayable",
      "type": "function"
    },
    {
      "inputs": [
        {
          "internalType": "address",
          "name": "_owner",
          "type": "address"
        }
      ],
      "name": "walletOfOwner",
      "outputs": [
        {
          "internalType": "uint256[]",
          "name": "",
          "type": "uint256[]"
        }
      ],
      "stateMutability": "view",
      "type": "function"
    },
    {
      "inputs": [
        {
          "internalType": "address",
          "name": "_user",
          "type": "address"
        }
      ],
      "name": "whitelistUser",
      "outputs": [],
      "stateMutability": "nonpayable",
      "type": "function"
    },
    {
      "inputs": [
        {
          "internalType": "address",
          "name": "",
          "type": "address"
        }
      ],
      "name": "whitelisted",
      "outputs": [
        {
          "internalType": "bool",
          "name": "",
          "type": "bool"
        }
      ],
      "stateMutability": "view",
      "type": "function"
    },
    {
      "inputs": [],
      "name": "withdraw",
      "outputs": [],
      "stateMutability": "payable",
      "type": "function"
    }
  ],
  "bytecode": "0x60806040526040518060400160405280600581526020017f2e6a736f6e000000000000000000000000000000000000000000000000000000815250600c90805190602001906200005192919062000225565b50662386f26fc10000600d556103e8600e556014600f556000601060006101000a81548160ff0219169083151502179055503480156200009057600080fd5b506040518060400160405280600981526020017f504f432d4d2d47494600000000000000000000000000000000000000000000008152506040518060400160405280600481526020017f504d47310000000000000000000000000000000000000000000000000000000081525081600090805190602001906200011592919062000225565b5080600190805190602001906200012e92919062000225565b50505062000151620001456200015760201b60201c565b6200015f60201b60201c565b6200033a565b600033905090565b6000600a60009054906101000a900473ffffffffffffffffffffffffffffffffffffffff16905081600a60006101000a81548173ffffffffffffffffffffffffffffffffffffffff021916908373ffffffffffffffffffffffffffffffffffffffff1602179055508173ffffffffffffffffffffffffffffffffffffffff168173ffffffffffffffffffffffffffffffffffffffff167f8be0079c531659141344cd1fd0a4f28419497f9722a3daafe3b4186f6b6457e060405160405180910390a35050565b8280546200023390620002d5565b90600052602060002090601f016020900481019282620002575760008555620002a3565b82601f106200027257805160ff1916838001178555620002a3565b82800160010185558215620002a3579182015b82811115620002a257825182559160200191906001019062000285565b5b509050620002b29190620002b6565b5090565b5b80821115620002d1576000816000905550600101620002b7565b5090565b60006002820490506001821680620002ee57607f821691505b602082108114156200030557620003046200030b565b5b50919050565b7f4e487b7100000000000000000000000000000000000000000000000000000000600052602260045260246000fd5b614c5b806200034a6000396000f3fe6080604052600436106102465760003560e01c80634f6ccce711610139578063a22cb465116100b6578063d3fc98641161007a578063d3fc98641461087f578063d5abeb011461089b578063d936547e146108c6578063da3ef23f14610903578063e985e9c51461092c578063f2fde38b1461096957610246565b8063a22cb4651461079c578063b88d4fde146107c5578063be9863a3146107ee578063c668286214610817578063c87b56dd1461084257610246565b806370a08231116100fd57806370a08231146106c9578063715018a6146107065780637f00c7a61461071d5780638da5cb5b1461074657806395d89b411461077157610246565b80634f6ccce7146105d057806355f804b31461060d5780635c975abb146106365780636352211e146106615780636c0360eb1461069e57610246565b806327506f53116101c757806342842e0e1161018b57806342842e0e146104db578063438b63001461050457806344a0d68a146105415780634a4c560d1461056a5780634ec455a81461059357610246565b806327506f53146104155780632e7700f0146104405780632f745c591461046b57806330cc7ae0146104a85780633ccfd60b146104d157610246565b806313faede61161020e57806313faede614610342578063162094c41461036d57806318160ddd14610396578063239c70ae146103c157806323b872dd146103ec57610246565b806301ffc9a71461024b57806302329a291461028857806306fdde03146102b1578063081812fc146102dc578063095ea7b314610319575b600080fd5b34801561025757600080fd5b50610272600480360381019061026d9190613853565b610992565b60405161027f9190613fb6565b60405180910390f35b34801561029457600080fd5b506102af60048036038101906102aa919061382a565b610a0c565b005b3480156102bd57600080fd5b506102c6610aa5565b6040516102d39190613fd1565b60405180910390f35b3480156102e857600080fd5b5061030360048036038101906102fe91906138e6565b610b37565b6040516103109190613e87565b60405180910390f35b34801561032557600080fd5b50610340600480360381019061033b9190613787565b610bbc565b005b34801561034e57600080fd5b50610357610cd4565b6040516103649190614233565b60405180910390f35b34801561037957600080fd5b50610394600480360381019061038f919061390f565b610cda565b005b3480156103a257600080fd5b506103ab610d82565b6040516103b89190614233565b60405180910390f35b3480156103cd57600080fd5b506103d6610d8f565b6040516103e39190614233565b60405180910390f35b3480156103f857600080fd5b50610413600480360381019061040e9190613681565b610d95565b005b34801561042157600080fd5b5061042a610df5565b6040516104379190613f72565b60405180910390f35b34801561044c57600080fd5b506104556110ca565b6040516104629190614233565b60405180910390f35b34801561047757600080fd5b50610492600480360381019061048d9190613787565b6110d4565b60405161049f9190614233565b60405180910390f35b3480156104b457600080fd5b506104cf60048036038101906104ca919061355d565b611179565b005b6104d9611250565b005b3480156104e757600080fd5b5061050260048036038101906104fd9190613681565b61130c565b005b34801561051057600080fd5b5061052b6004803603810190610526919061355d565b61132c565b6040516105389190613f94565b60405180910390f35b34801561054d57600080fd5b50610568600480360381019061056391906138e6565b611426565b005b34801561057657600080fd5b50610591600480360381019061058c919061355d565b6114ac565b005b34801561059f57600080fd5b506105ba60048036038101906105b591906138e6565b611583565b6040516105c79190613fd1565b60405180910390f35b3480156105dc57600080fd5b506105f760048036038101906105f291906138e6565b611623565b6040516106049190614233565b60405180910390f35b34801561061957600080fd5b50610634600480360381019061062f91906138a5565b6116ba565b005b34801561064257600080fd5b5061064b611750565b6040516106589190613fb6565b60405180910390f35b34801561066d57600080fd5b50610688600480360381019061068391906138e6565b611763565b6040516106959190613e87565b60405180910390f35b3480156106aa57600080fd5b506106b3611815565b6040516106c09190613fd1565b60405180910390f35b3480156106d557600080fd5b506106f060048036038101906106eb919061355d565b6118a3565b6040516106fd9190614233565b60405180910390f35b34801561071257600080fd5b5061071b61195b565b005b34801561072957600080fd5b50610744600480360381019061073f91906138e6565b6119e3565b005b34801561075257600080fd5b5061075b611a69565b6040516107689190613e87565b60405180910390f35b34801561077d57600080fd5b50610786611a93565b6040516107939190613fd1565b60405180910390f35b3480156107a857600080fd5b506107c360048036038101906107be919061374b565b611b25565b005b3480156107d157600080fd5b506107ec60048036038101906107e791906136d0565b611b3b565b005b3480156107fa57600080fd5b5061081560048036038101906108109190613586565b611b9d565b005b34801561082357600080fd5b5061082c611d86565b6040516108399190613fd1565b60405180910390f35b34801561084e57600080fd5b50610869600480360381019061086491906138e6565b611e14565b6040516108769190613fd1565b60405180910390f35b610899600480360381019061089491906137c3565b611f01565b005b3480156108a757600080fd5b506108b0612060565b6040516108bd9190614233565b60405180910390f35b3480156108d257600080fd5b506108ed60048036038101906108e8919061355d565b612066565b6040516108fa9190613fb6565b60405180910390f35b34801561090f57600080fd5b5061092a600480360381019061092591906138a5565b612086565b005b34801561093857600080fd5b50610953600480360381019061094e9190613645565b61211c565b6040516109609190613fb6565b60405180910390f35b34801561097557600080fd5b50610990600480360381019061098b919061355d565b6121b0565b005b60007f780e9d63000000000000000000000000000000000000000000000000000000007bffffffffffffffffffffffffffffffffffffffffffffffffffffffff1916827bffffffffffffffffffffffffffffffffffffffffffffffffffffffff19161480610a055750610a04826122a8565b5b9050919050565b610a1461238a565b73ffffffffffffffffffffffffffffffffffffffff16610a32611a69565b73ffffffffffffffffffffffffffffffffffffffff1614610a88576040517f08c379a0000000000000000000000000000000000000000000000000000000008152600401610a7f90614173565b60405180910390fd5b80601060006101000a81548160ff02191690831515021790555050565b606060008054610ab490614572565b80601f0160208091040260200160405190810160405280929190818152602001828054610ae090614572565b8015610b2d5780601f10610b0257610100808354040283529160200191610b2d565b820191906000526020600020905b815481529060010190602001808311610b1057829003601f168201915b5050505050905090565b6000610b4282612392565b610b81576040517f08c379a0000000000000000000000000000000000000000000000000000000008152600401610b7890614153565b60405180910390fd5b6004600083815260200190815260200160002060009054906101000a900473ffffffffffffffffffffffffffffffffffffffff169050919050565b6000610bc782611763565b90508073ffffffffffffffffffffffffffffffffffffffff168373ffffffffffffffffffffffffffffffffffffffff161415610c38576040517f08c379a0000000000000000000000000000000000000000000000000000000008152600401610c2f906141d3565b60405180910390fd5b8073ffffffffffffffffffffffffffffffffffffffff16610c5761238a565b73ffffffffffffffffffffffffffffffffffffffff161480610c865750610c8581610c8061238a565b61211c565b5b610cc5576040517f08c379a0000000000000000000000000000000000000000000000000000000008152600401610cbc906140d3565b60405180910390fd5b610ccf83836123fe565b505050565b600d5481565b610ce261238a565b73ffffffffffffffffffffffffffffffffffffffff16610d00611a69565b73ffffffffffffffffffffffffffffffffffffffff1614610d56576040517f08c379a0000000000000000000000000000000000000000000000000000000008152600401610d4d90614173565b60405180910390fd5b80601260008481526020019081526020016000209080519060200190610d7d92919061336c565b505050565b6000600880549050905090565b600f5481565b610da6610da061238a565b826124b7565b610de5576040517f08c379a0000000000000000000000000000000000000000000000000000000008152600401610ddc906141f3565b60405180910390fd5b610df0838383612595565b505050565b60606014805480602002602001604051908101604052809291908181526020016000905b828210156110c157838290600052602060002090600702016040518060e00160405290816000820160009054906101000a900473ffffffffffffffffffffffffffffffffffffffff1673ffffffffffffffffffffffffffffffffffffffff1673ffffffffffffffffffffffffffffffffffffffff1681526020016001820160009054906101000a900473ffffffffffffffffffffffffffffffffffffffff1673ffffffffffffffffffffffffffffffffffffffff1673ffffffffffffffffffffffffffffffffffffffff16815260200160028201548152602001600382018054610f0290614572565b80601f0160208091040260200160405190810160405280929190818152602001828054610f2e90614572565b8015610f7b5780601f10610f5057610100808354040283529160200191610f7b565b820191906000526020600020905b815481529060010190602001808311610f5e57829003601f168201915b5050505050815260200160048201548152602001600582018054610f9e90614572565b80601f0160208091040260200160405190810160405280929190818152602001828054610fca90614572565b80156110175780601f10610fec57610100808354040283529160200191611017565b820191906000526020600020905b815481529060010190602001808311610ffa57829003601f168201915b5050505050815260200160068201805461103090614572565b80601f016020809104026020016040519081016040528092919081815260200182805461105c90614572565b80156110a95780601f1061107e576101008083540402835291602001916110a9565b820191906000526020600020905b81548152906001019060200180831161108c57829003601f168201915b50505050508152505081526020019060010190610e19565b50505050905090565b6000601354905090565b60006110df836118a3565b8210611120576040517f08c379a000000000000000000000000000000000000000000000000000000000815260040161111790613ff3565b60405180910390fd5b600660008473ffffffffffffffffffffffffffffffffffffffff1673ffffffffffffffffffffffffffffffffffffffff168152602001908152602001600020600083815260200190815260200160002054905092915050565b61118161238a565b73ffffffffffffffffffffffffffffffffffffffff1661119f611a69565b73ffffffffffffffffffffffffffffffffffffffff16146111f5576040517f08c379a00000000000000000000000000000000000000000000000000000000081526004016111ec90614173565b60405180910390fd5b6000601160008373ffffffffffffffffffffffffffffffffffffffff1673ffffffffffffffffffffffffffffffffffffffff16815260200190815260200160002060006101000a81548160ff02191690831515021790555050565b61125861238a565b73ffffffffffffffffffffffffffffffffffffffff16611276611a69565b73ffffffffffffffffffffffffffffffffffffffff16146112cc576040517f08c379a00000000000000000000000000000000000000000000000000000000081526004016112c390614173565b60405180910390fd5b3373ffffffffffffffffffffffffffffffffffffffff166108fc479081150290604051600060405180830381858888f1935050505061130a57600080fd5b565b61132783838360405180602001604052806000815250611b3b565b505050565b60606000611339836118a3565b905060008167ffffffffffffffff81111561137d577f4e487b7100000000000000000000000000000000000000000000000000000000600052604160045260246000fd5b6040519080825280602002602001820160405280156113ab5781602001602082028036833780820191505090505b50905060005b8281101561141b576113c385826110d4565b8282815181106113fc577f4e487b7100000000000000000000000000000000000000000000000000000000600052603260045260246000fd5b6020026020010181815250508080611413906145d5565b9150506113b1565b508092505050919050565b61142e61238a565b73ffffffffffffffffffffffffffffffffffffffff1661144c611a69565b73ffffffffffffffffffffffffffffffffffffffff16146114a2576040517f08c379a000000000000000000000000000000000000000000000000000000000815260040161149990614173565b60405180910390fd5b80600d8190555050565b6114b461238a565b73ffffffffffffffffffffffffffffffffffffffff166114d2611a69565b73ffffffffffffffffffffffffffffffffffffffff1614611528576040517f08c379a000000000000000000000000000000000000000000000000000000000815260040161151f90614173565b60405180910390fd5b6001601160008373ffffffffffffffffffffffffffffffffffffffff1673ffffffffffffffffffffffffffffffffffffffff16815260200190815260200160002060006101000a81548160ff02191690831515021790555050565b601260205280600052604060002060009150905080546115a290614572565b80601f01602080910402602001604051908101604052809291908181526020018280546115ce90614572565b801561161b5780601f106115f05761010080835404028352916020019161161b565b820191906000526020600020905b8154815290600101906020018083116115fe57829003601f168201915b505050505081565b600061162d610d82565b821061166e576040517f08c379a000000000000000000000000000000000000000000000000000000000815260040161166590614213565b60405180910390fd5b600882815481106116a8577f4e487b7100000000000000000000000000000000000000000000000000000000600052603260045260246000fd5b90600052602060002001549050919050565b6116c261238a565b73ffffffffffffffffffffffffffffffffffffffff166116e0611a69565b73ffffffffffffffffffffffffffffffffffffffff1614611736576040517f08c379a000000000000000000000000000000000000000000000000000000000815260040161172d90614173565b60405180910390fd5b80600b908051906020019061174c92919061336c565b5050565b601060009054906101000a900460ff1681565b6000806002600084815260200190815260200160002060009054906101000a900473ffffffffffffffffffffffffffffffffffffffff169050600073ffffffffffffffffffffffffffffffffffffffff168173ffffffffffffffffffffffffffffffffffffffff16141561180c576040517f08c379a000000000000000000000000000000000000000000000000000000000815260040161180390614113565b60405180910390fd5b80915050919050565b600b805461182290614572565b80601f016020809104026020016040519081016040528092919081815260200182805461184e90614572565b801561189b5780601f106118705761010080835404028352916020019161189b565b820191906000526020600020905b81548152906001019060200180831161187e57829003601f168201915b505050505081565b60008073ffffffffffffffffffffffffffffffffffffffff168273ffffffffffffffffffffffffffffffffffffffff161415611914576040517f08c379a000000000000000000000000000000000000000000000000000000000815260040161190b906140f3565b60405180910390fd5b600360008373ffffffffffffffffffffffffffffffffffffffff1673ffffffffffffffffffffffffffffffffffffffff168152602001908152602001600020549050919050565b61196361238a565b73ffffffffffffffffffffffffffffffffffffffff16611981611a69565b73ffffffffffffffffffffffffffffffffffffffff16146119d7576040517f08c379a00000000000000000000000000000000000000000000000000000000081526004016119ce90614173565b60405180910390fd5b6119e160006127f1565b565b6119eb61238a565b73ffffffffffffffffffffffffffffffffffffffff16611a09611a69565b73ffffffffffffffffffffffffffffffffffffffff1614611a5f576040517f08c379a0000000000000000000000000000000000000000000000000000000008152600401611a5690614173565b60405180910390fd5b80600f8190555050565b6000600a60009054906101000a900473ffffffffffffffffffffffffffffffffffffffff16905090565b606060018054611aa290614572565b80601f0160208091040260200160405190810160405280929190818152602001828054611ace90614572565b8015611b1b5780601f10611af057610100808354040283529160200191611b1b565b820191906000526020600020905b815481529060010190602001808311611afe57829003601f168201915b5050505050905090565b611b37611b3061238a565b83836128b7565b5050565b611b4c611b4661238a565b836124b7565b611b8b576040517f08c379a0000000000000000000000000000000000000000000000000000000008152600401611b82906141f3565b60405180910390fd5b611b9784848484612a24565b50505050565b600160136000828254611bb09190614390565b9250508190555060146040518060e001604052803373ffffffffffffffffffffffffffffffffffffffff1681526020018773ffffffffffffffffffffffffffffffffffffffff16815260200186815260200185815260200142815260200184815260200183815250908060018154018082558091505060019003906000526020600020906007020160009091909190915060008201518160000160006101000a81548173ffffffffffffffffffffffffffffffffffffffff021916908373ffffffffffffffffffffffffffffffffffffffff16021790555060208201518160010160006101000a81548173ffffffffffffffffffffffffffffffffffffffff021916908373ffffffffffffffffffffffffffffffffffffffff160217905550604082015181600201556060820151816003019080519060200190611cf592919061336c565b506080820151816004015560a0820151816005019080519060200190611d1c92919061336c565b5060c0820151816006019080519060200190611d3992919061336c565b5050507f0d4e88a530890db0ba251aac53b5bca8b614cb0b6aff4f5b377f6a9821c373ee33868686428787604051611d779796959493929190613ea2565b60405180910390a15050505050565b600c8054611d9390614572565b80601f0160208091040260200160405190810160405280929190818152602001828054611dbf90614572565b8015611e0c5780601f10611de157610100808354040283529160200191611e0c565b820191906000526020600020905b815481529060010190602001808311611def57829003601f168201915b505050505081565b6060611e1f82612392565b611e5e576040517f08c379a0000000000000000000000000000000000000000000000000000000008152600401611e55906141b3565b60405180910390fd5b601260008381526020019081526020016000208054611e7c90614572565b80601f0160208091040260200160405190810160405280929190818152602001828054611ea890614572565b8015611ef55780601f10611eca57610100808354040283529160200191611ef5565b820191906000526020600020905b815481529060010190602001808311611ed857829003601f168201915b50505050509050919050565b6000611f0b610d82565b9050339350601060009054906101000a900460ff1615611f2a57600080fd5b60008311611f3757600080fd5b600f54831115611f4657600080fd5b600e548382611f559190614390565b1115611f6057600080fd5b611f68611a69565b73ffffffffffffffffffffffffffffffffffffffff163373ffffffffffffffffffffffffffffffffffffffff161461200e5760011515601160003373ffffffffffffffffffffffffffffffffffffffff1673ffffffffffffffffffffffffffffffffffffffff16815260200190815260200160002060009054906101000a900460ff1615151461200d5782600d5461200091906143e6565b34101561200c57600080fd5b5b5b6000600190505b8381116120595761203185828461202c9190614390565b612a80565b61204681836120409190614390565b84610cda565b8080612051906145d5565b915050612015565b5050505050565b600e5481565b60116020528060005260406000206000915054906101000a900460ff1681565b61208e61238a565b73ffffffffffffffffffffffffffffffffffffffff166120ac611a69565b73ffffffffffffffffffffffffffffffffffffffff1614612102576040517f08c379a00000000000000000000000000000000000000000000000000000000081526004016120f990614173565b60405180910390fd5b80600c908051906020019061211892919061336c565b5050565b6000600560008473ffffffffffffffffffffffffffffffffffffffff1673ffffffffffffffffffffffffffffffffffffffff16815260200190815260200160002060008373ffffffffffffffffffffffffffffffffffffffff1673ffffffffffffffffffffffffffffffffffffffff16815260200190815260200160002060009054906101000a900460ff16905092915050565b6121b861238a565b73ffffffffffffffffffffffffffffffffffffffff166121d6611a69565b73ffffffffffffffffffffffffffffffffffffffff161461222c576040517f08c379a000000000000000000000000000000000000000000000000000000000815260040161222390614173565b60405180910390fd5b600073ffffffffffffffffffffffffffffffffffffffff168173ffffffffffffffffffffffffffffffffffffffff16141561229c576040517f08c379a000000000000000000000000000000000000000000000000000000000815260040161229390614033565b60405180910390fd5b6122a5816127f1565b50565b60007f80ac58cd000000000000000000000000000000000000000000000000000000007bffffffffffffffffffffffffffffffffffffffffffffffffffffffff1916827bffffffffffffffffffffffffffffffffffffffffffffffffffffffff1916148061237357507f5b5e139f000000000000000000000000000000000000000000000000000000007bffffffffffffffffffffffffffffffffffffffffffffffffffffffff1916827bffffffffffffffffffffffffffffffffffffffffffffffffffffffff1916145b80612383575061238282612a9e565b5b9050919050565b600033905090565b60008073ffffffffffffffffffffffffffffffffffffffff166002600084815260200190815260200160002060009054906101000a900473ffffffffffffffffffffffffffffffffffffffff1673ffffffffffffffffffffffffffffffffffffffff1614159050919050565b816004600083815260200190815260200160002060006101000a81548173ffffffffffffffffffffffffffffffffffffffff021916908373ffffffffffffffffffffffffffffffffffffffff160217905550808273ffffffffffffffffffffffffffffffffffffffff1661247183611763565b73ffffffffffffffffffffffffffffffffffffffff167f8c5be1e5ebec7d5bd14f71427d1e84f3dd0314c0f7b2291e5b200ac8c7c3b92560405160405180910390a45050565b60006124c282612392565b612501576040517f08c379a00000000000000000000000000000000000000000000000000000000081526004016124f8906140b3565b60405180910390fd5b600061250c83611763565b90508073ffffffffffffffffffffffffffffffffffffffff168473ffffffffffffffffffffffffffffffffffffffff16148061257b57508373ffffffffffffffffffffffffffffffffffffffff1661256384610b37565b73ffffffffffffffffffffffffffffffffffffffff16145b8061258c575061258b818561211c565b5b91505092915050565b8273ffffffffffffffffffffffffffffffffffffffff166125b582611763565b73ffffffffffffffffffffffffffffffffffffffff161461260b576040517f08c379a000000000000000000000000000000000000000000000000000000000815260040161260290614193565b60405180910390fd5b600073ffffffffffffffffffffffffffffffffffffffff168273ffffffffffffffffffffffffffffffffffffffff16141561267b576040517f08c379a000000000000000000000000000000000000000000000000000000000815260040161267290614073565b60405180910390fd5b612686838383612b08565b6126916000826123fe565b6001600360008573ffffffffffffffffffffffffffffffffffffffff1673ffffffffffffffffffffffffffffffffffffffff16815260200190815260200160002060008282546126e19190614440565b925050819055506001600360008473ffffffffffffffffffffffffffffffffffffffff1673ffffffffffffffffffffffffffffffffffffffff16815260200190815260200160002060008282546127389190614390565b92505081905550816002600083815260200190815260200160002060006101000a81548173ffffffffffffffffffffffffffffffffffffffff021916908373ffffffffffffffffffffffffffffffffffffffff160217905550808273ffffffffffffffffffffffffffffffffffffffff168473ffffffffffffffffffffffffffffffffffffffff167fddf252ad1be2c89b69c2b068fc378daa952ba7f163c4a11628f55a4df523b3ef60405160405180910390a4505050565b6000600a60009054906101000a900473ffffffffffffffffffffffffffffffffffffffff16905081600a60006101000a81548173ffffffffffffffffffffffffffffffffffffffff021916908373ffffffffffffffffffffffffffffffffffffffff1602179055508173ffffffffffffffffffffffffffffffffffffffff168173ffffffffffffffffffffffffffffffffffffffff167f8be0079c531659141344cd1fd0a4f28419497f9722a3daafe3b4186f6b6457e060405160405180910390a35050565b8173ffffffffffffffffffffffffffffffffffffffff168373ffffffffffffffffffffffffffffffffffffffff161415612926576040517f08c379a000000000000000000000000000000000000000000000000000000000815260040161291d90614093565b60405180910390fd5b80600560008573ffffffffffffffffffffffffffffffffffffffff1673ffffffffffffffffffffffffffffffffffffffff16815260200190815260200160002060008473ffffffffffffffffffffffffffffffffffffffff1673ffffffffffffffffffffffffffffffffffffffff16815260200190815260200160002060006101000a81548160ff0219169083151502179055508173ffffffffffffffffffffffffffffffffffffffff168373ffffffffffffffffffffffffffffffffffffffff167f17307eab39ab6107e8899845ad3d59bd9653f200f220920489ca2b5937696c3183604051612a179190613fb6565b60405180910390a3505050565b612a2f848484612595565b612a3b84848484612c1c565b612a7a576040517f08c379a0000000000000000000000000000000000000000000000000000000008152600401612a7190614013565b60405180910390fd5b50505050565b612a9a828260405180602001604052806000815250612db3565b5050565b60007f01ffc9a7000000000000000000000000000000000000000000000000000000007bffffffffffffffffffffffffffffffffffffffffffffffffffffffff1916827bffffffffffffffffffffffffffffffffffffffffffffffffffffffff1916149050919050565b612b13838383612e0e565b600073ffffffffffffffffffffffffffffffffffffffff168373ffffffffffffffffffffffffffffffffffffffff161415612b5657612b5181612e13565b612b95565b8173ffffffffffffffffffffffffffffffffffffffff168373ffffffffffffffffffffffffffffffffffffffff1614612b9457612b938382612e5c565b5b5b600073ffffffffffffffffffffffffffffffffffffffff168273ffffffffffffffffffffffffffffffffffffffff161415612bd857612bd381612fc9565b612c17565b8273ffffffffffffffffffffffffffffffffffffffff168273ffffffffffffffffffffffffffffffffffffffff1614612c1657612c15828261310c565b5b5b505050565b6000612c3d8473ffffffffffffffffffffffffffffffffffffffff1661318b565b15612da6578373ffffffffffffffffffffffffffffffffffffffff1663150b7a02612c6661238a565b8786866040518563ffffffff1660e01b8152600401612c889493929190613f26565b602060405180830381600087803b158015612ca257600080fd5b505af1925050508015612cd357506040513d601f19601f82011682018060405250810190612cd0919061387c565b60015b612d56573d8060008114612d03576040519150601f19603f3d011682016040523d82523d6000602084013e612d08565b606091505b50600081511415612d4e576040517f08c379a0000000000000000000000000000000000000000000000000000000008152600401612d4590614013565b60405180910390fd5b805181602001fd5b63150b7a0260e01b7bffffffffffffffffffffffffffffffffffffffffffffffffffffffff1916817bffffffffffffffffffffffffffffffffffffffffffffffffffffffff191614915050612dab565b600190505b949350505050565b612dbd838361319e565b612dca6000848484612c1c565b612e09576040517f08c379a0000000000000000000000000000000000000000000000000000000008152600401612e0090614013565b60405180910390fd5b505050565b505050565b6008805490506009600083815260200190815260200160002081905550600881908060018154018082558091505060019003906000526020600020016000909190919091505550565b60006001612e69846118a3565b612e739190614440565b9050600060076000848152602001908152602001600020549050818114612f58576000600660008673ffffffffffffffffffffffffffffffffffffffff1673ffffffffffffffffffffffffffffffffffffffff168152602001908152602001600020600084815260200190815260200160002054905080600660008773ffffffffffffffffffffffffffffffffffffffff1673ffffffffffffffffffffffffffffffffffffffff168152602001908152602001600020600084815260200190815260200160002081905550816007600083815260200190815260200160002081905550505b6007600084815260200190815260200160002060009055600660008573ffffffffffffffffffffffffffffffffffffffff1673ffffffffffffffffffffffffffffffffffffffff16815260200190815260200160002060008381526020019081526020016000206000905550505050565b60006001600880549050612fdd9190614440565b9050600060096000848152602001908152602001600020549050600060088381548110613033577f4e487b7100000000000000000000000000000000000000000000000000000000600052603260045260246000fd5b90600052602060002001549050806008838154811061307b577f4e487b7100000000000000000000000000000000000000000000000000000000600052603260045260246000fd5b9060005260206000200181905550816009600083815260200190815260200160002081905550600960008581526020019081526020016000206000905560088054806130f0577f4e487b7100000000000000000000000000000000000000000000000000000000600052603160045260246000fd5b6001900381819060005260206000200160009055905550505050565b6000613117836118a3565b905081600660008573ffffffffffffffffffffffffffffffffffffffff1673ffffffffffffffffffffffffffffffffffffffff168152602001908152602001600020600083815260200190815260200160002081905550806007600084815260200190815260200160002081905550505050565b600080823b905060008111915050919050565b600073ffffffffffffffffffffffffffffffffffffffff168273ffffffffffffffffffffffffffffffffffffffff16141561320e576040517f08c379a000000000000000000000000000000000000000000000000000000000815260040161320590614133565b60405180910390fd5b61321781612392565b15613257576040517f08c379a000000000000000000000000000000000000000000000000000000000815260040161324e90614053565b60405180910390fd5b61326360008383612b08565b6001600360008473ffffffffffffffffffffffffffffffffffffffff1673ffffffffffffffffffffffffffffffffffffffff16815260200190815260200160002060008282546132b39190614390565b92505081905550816002600083815260200190815260200160002060006101000a81548173ffffffffffffffffffffffffffffffffffffffff021916908373ffffffffffffffffffffffffffffffffffffffff160217905550808273ffffffffffffffffffffffffffffffffffffffff16600073ffffffffffffffffffffffffffffffffffffffff167fddf252ad1be2c89b69c2b068fc378daa952ba7f163c4a11628f55a4df523b3ef60405160405180910390a45050565b82805461337890614572565b90600052602060002090601f01602090048101928261339a57600085556133e1565b82601f106133b357805160ff19168380011785556133e1565b828001600101855582156133e1579182015b828111156133e05782518255916020019190600101906133c5565b5b5090506133ee91906133f2565b5090565b5b8082111561340b5760008160009055506001016133f3565b5090565b600061342261341d84614273565b61424e565b90508281526020810184848401111561343a57600080fd5b613445848285614530565b509392505050565b600061346061345b846142a4565b61424e565b90508281526020810184848401111561347857600080fd5b613483848285614530565b509392505050565b60008135905061349a81614bb2565b92915050565b6000813590506134af81614bc9565b92915050565b6000813590506134c481614be0565b92915050565b6000813590506134d981614bf7565b92915050565b6000815190506134ee81614bf7565b92915050565b600082601f83011261350557600080fd5b813561351584826020860161340f565b91505092915050565b600082601f83011261352f57600080fd5b813561353f84826020860161344d565b91505092915050565b60008135905061355781614c0e565b92915050565b60006020828403121561356f57600080fd5b600061357d8482850161348b565b91505092915050565b600080600080600060a0868803121561359e57600080fd5b60006135ac888289016134a0565b95505060206135bd88828901613548565b945050604086013567ffffffffffffffff8111156135da57600080fd5b6135e68882890161351e565b935050606086013567ffffffffffffffff81111561360357600080fd5b61360f8882890161351e565b925050608086013567ffffffffffffffff81111561362c57600080fd5b6136388882890161351e565b9150509295509295909350565b6000806040838503121561365857600080fd5b60006136668582860161348b565b92505060206136778582860161348b565b9150509250929050565b60008060006060848603121561369657600080fd5b60006136a48682870161348b565b93505060206136b58682870161348b565b92505060406136c686828701613548565b9150509250925092565b600080600080608085870312156136e657600080fd5b60006136f48782880161348b565b94505060206137058782880161348b565b935050604061371687828801613548565b925050606085013567ffffffffffffffff81111561373357600080fd5b61373f878288016134f4565b91505092959194509250565b6000806040838503121561375e57600080fd5b600061376c8582860161348b565b925050602061377d858286016134b5565b9150509250929050565b6000806040838503121561379a57600080fd5b60006137a88582860161348b565b92505060206137b985828601613548565b9150509250929050565b6000806000606084860312156137d857600080fd5b60006137e68682870161348b565b93505060206137f786828701613548565b925050604084013567ffffffffffffffff81111561381457600080fd5b6138208682870161351e565b9150509250925092565b60006020828403121561383c57600080fd5b600061384a848285016134b5565b91505092915050565b60006020828403121561386557600080fd5b6000613873848285016134ca565b91505092915050565b60006020828403121561388e57600080fd5b600061389c848285016134df565b91505092915050565b6000602082840312156138b757600080fd5b600082013567ffffffffffffffff8111156138d157600080fd5b6138dd8482850161351e565b91505092915050565b6000602082840312156138f857600080fd5b600061390684828501613548565b91505092915050565b6000806040838503121561392257600080fd5b600061393085828601613548565b925050602083013567ffffffffffffffff81111561394d57600080fd5b6139598582860161351e565b9150509250929050565b600061396f8383613dbf565b905092915050565b60006139838383613e69565b60208301905092915050565b613998816144fa565b82525050565b6139a781614474565b82525050565b6139b681614474565b82525050565b60006139c7826142f5565b6139d1818561433b565b9350836020820285016139e3856142d5565b8060005b85811015613a1f5784840389528151613a008582613963565b9450613a0b83614321565b925060208a019950506001810190506139e7565b50829750879550505050505092915050565b6000613a3c82614300565b613a46818561434c565b9350613a51836142e5565b8060005b83811015613a82578151613a698882613977565b9750613a748361432e565b925050600181019050613a55565b5085935050505092915050565b613a9881614498565b82525050565b6000613aa98261430b565b613ab3818561435d565b9350613ac381856020860161453f565b613acc816146ab565b840191505092915050565b6000613ae282614316565b613aec818561436e565b9350613afc81856020860161453f565b613b05816146ab565b840191505092915050565b6000613b1b82614316565b613b25818561437f565b9350613b3581856020860161453f565b613b3e816146ab565b840191505092915050565b6000613b56602b8361437f565b9150613b61826146bc565b604082019050919050565b6000613b7960328361437f565b9150613b848261470b565b604082019050919050565b6000613b9c60268361437f565b9150613ba78261475a565b604082019050919050565b6000613bbf601c8361437f565b9150613bca826147a9565b602082019050919050565b6000613be260248361437f565b9150613bed826147d2565b604082019050919050565b6000613c0560198361437f565b9150613c1082614821565b602082019050919050565b6000613c28602c8361437f565b9150613c338261484a565b604082019050919050565b6000613c4b60388361437f565b9150613c5682614899565b604082019050919050565b6000613c6e602a8361437f565b9150613c79826148e8565b604082019050919050565b6000613c9160298361437f565b9150613c9c82614937565b604082019050919050565b6000613cb460208361437f565b9150613cbf82614986565b602082019050919050565b6000613cd7602c8361437f565b9150613ce2826149af565b604082019050919050565b6000613cfa60208361437f565b9150613d05826149fe565b602082019050919050565b6000613d1d60298361437f565b9150613d2882614a27565b604082019050919050565b6000613d40602f8361437f565b9150613d4b82614a76565b604082019050919050565b6000613d6360218361437f565b9150613d6e82614ac5565b604082019050919050565b6000613d8660318361437f565b9150613d9182614b14565b604082019050919050565b6000613da9602c8361437f565b9150613db482614b63565b604082019050919050565b600060e083016000830151613dd7600086018261399e565b506020830151613dea602086018261399e565b506040830151613dfd6040860182613e69565b5060608301518482036060860152613e158282613ad7565b9150506080830151613e2a6080860182613e69565b5060a083015184820360a0860152613e428282613ad7565b91505060c083015184820360c0860152613e5c8282613ad7565b9150508091505092915050565b613e72816144f0565b82525050565b613e81816144f0565b82525050565b6000602082019050613e9c60008301846139ad565b92915050565b600060e082019050613eb7600083018a6139ad565b613ec4602083018961398f565b613ed16040830188613e78565b8181036060830152613ee38187613b10565b9050613ef26080830186613e78565b81810360a0830152613f048185613b10565b905081810360c0830152613f188184613b10565b905098975050505050505050565b6000608082019050613f3b60008301876139ad565b613f4860208301866139ad565b613f556040830185613e78565b8181036060830152613f678184613a9e565b905095945050505050565b60006020820190508181036000830152613f8c81846139bc565b905092915050565b60006020820190508181036000830152613fae8184613a31565b905092915050565b6000602082019050613fcb6000830184613a8f565b92915050565b60006020820190508181036000830152613feb8184613b10565b905092915050565b6000602082019050818103600083015261400c81613b49565b9050919050565b6000602082019050818103600083015261402c81613b6c565b9050919050565b6000602082019050818103600083015261404c81613b8f565b9050919050565b6000602082019050818103600083015261406c81613bb2565b9050919050565b6000602082019050818103600083015261408c81613bd5565b9050919050565b600060208201905081810360008301526140ac81613bf8565b9050919050565b600060208201905081810360008301526140cc81613c1b565b9050919050565b600060208201905081810360008301526140ec81613c3e565b9050919050565b6000602082019050818103600083015261410c81613c61565b9050919050565b6000602082019050818103600083015261412c81613c84565b9050919050565b6000602082019050818103600083015261414c81613ca7565b9050919050565b6000602082019050818103600083015261416c81613cca565b9050919050565b6000602082019050818103600083015261418c81613ced565b9050919050565b600060208201905081810360008301526141ac81613d10565b9050919050565b600060208201905081810360008301526141cc81613d33565b9050919050565b600060208201905081810360008301526141ec81613d56565b9050919050565b6000602082019050818103600083015261420c81613d79565b9050919050565b6000602082019050818103600083015261422c81613d9c565b9050919050565b60006020820190506142486000830184613e78565b92915050565b6000614258614269565b905061426482826145a4565b919050565b6000604051905090565b600067ffffffffffffffff82111561428e5761428d61467c565b5b614297826146ab565b9050602081019050919050565b600067ffffffffffffffff8211156142bf576142be61467c565b5b6142c8826146ab565b9050602081019050919050565b6000819050602082019050919050565b6000819050602082019050919050565b600081519050919050565b600081519050919050565b600081519050919050565b600081519050919050565b6000602082019050919050565b6000602082019050919050565b600082825260208201905092915050565b600082825260208201905092915050565b600082825260208201905092915050565b600082825260208201905092915050565b600082825260208201905092915050565b600061439b826144f0565b91506143a6836144f0565b9250827fffffffffffffffffffffffffffffffffffffffffffffffffffffffffffffffff038211156143db576143da61461e565b5b828201905092915050565b60006143f1826144f0565b91506143fc836144f0565b9250817fffffffffffffffffffffffffffffffffffffffffffffffffffffffffffffffff04831182151516156144355761443461461e565b5b828202905092915050565b600061444b826144f0565b9150614456836144f0565b9250828210156144695761446861461e565b5b828203905092915050565b600061447f826144d0565b9050919050565b6000614491826144d0565b9050919050565b60008115159050919050565b60007fffffffff0000000000000000000000000000000000000000000000000000000082169050919050565b600073ffffffffffffffffffffffffffffffffffffffff82169050919050565b6000819050919050565b60006145058261450c565b9050919050565b60006145178261451e565b9050919050565b6000614529826144d0565b9050919050565b82818337600083830152505050565b60005b8381101561455d578082015181840152602081019050614542565b8381111561456c576000848401525b50505050565b6000600282049050600182168061458a57607f821691505b6020821081141561459e5761459d61464d565b5b50919050565b6145ad826146ab565b810181811067ffffffffffffffff821117156145cc576145cb61467c565b5b80604052505050565b60006145e0826144f0565b91507fffffffffffffffffffffffffffffffffffffffffffffffffffffffffffffffff8214156146135761461261461e565b5b600182019050919050565b7f4e487b7100000000000000000000000000000000000000000000000000000000600052601160045260246000fd5b7f4e487b7100000000000000000000000000000000000000000000000000000000600052602260045260246000fd5b7f4e487b7100000000000000000000000000000000000000000000000000000000600052604160045260246000fd5b6000601f19601f8301169050919050565b7f455243373231456e756d657261626c653a206f776e657220696e646578206f7560008201527f74206f6620626f756e6473000000000000000000000000000000000000000000602082015250565b7f4552433732313a207472616e7366657220746f206e6f6e20455243373231526560008201527f63656976657220696d706c656d656e7465720000000000000000000000000000602082015250565b7f4f776e61626c653a206e6577206f776e657220697320746865207a65726f206160008201527f6464726573730000000000000000000000000000000000000000000000000000602082015250565b7f4552433732313a20746f6b656e20616c7265616479206d696e74656400000000600082015250565b7f4552433732313a207472616e7366657220746f20746865207a65726f2061646460008201527f7265737300000000000000000000000000000000000000000000000000000000602082015250565b7f4552433732313a20617070726f766520746f2063616c6c657200000000000000600082015250565b7f4552433732313a206f70657261746f7220717565727920666f72206e6f6e657860008201527f697374656e7420746f6b656e0000000000000000000000000000000000000000602082015250565b7f4552433732313a20617070726f76652063616c6c6572206973206e6f74206f7760008201527f6e6572206e6f7220617070726f76656420666f7220616c6c0000000000000000602082015250565b7f4552433732313a2062616c616e636520717565727920666f7220746865207a6560008201527f726f206164647265737300000000000000000000000000000000000000000000602082015250565b7f4552433732313a206f776e657220717565727920666f72206e6f6e657869737460008201527f656e7420746f6b656e0000000000000000000000000000000000000000000000602082015250565b7f4552433732313a206d696e7420746f20746865207a65726f2061646472657373600082015250565b7f4552433732313a20617070726f76656420717565727920666f72206e6f6e657860008201527f697374656e7420746f6b656e0000000000000000000000000000000000000000602082015250565b7f4f776e61626c653a2063616c6c6572206973206e6f7420746865206f776e6572600082015250565b7f4552433732313a207472616e73666572206f6620746f6b656e2074686174206960008201527f73206e6f74206f776e0000000000000000000000000000000000000000000000602082015250565b7f4552433732314d657461646174613a2055524920717565727920666f72206e6f60008201527f6e6578697374656e7420746f6b656e0000000000000000000000000000000000602082015250565b7f4552433732313a20617070726f76616c20746f2063757272656e74206f776e6560008201527f7200000000000000000000000000000000000000000000000000000000000000602082015250565b7f4552433732313a207472616e736665722063616c6c6572206973206e6f74206f60008201527f776e6572206e6f7220617070726f766564000000000000000000000000000000602082015250565b7f455243373231456e756d657261626c653a20676c6f62616c20696e646578206f60008201527f7574206f6620626f756e64730000000000000000000000000000000000000000602082015250565b614bbb81614474565b8114614bc657600080fd5b50565b614bd281614486565b8114614bdd57600080fd5b50565b614be981614498565b8114614bf457600080fd5b50565b614c00816144a4565b8114614c0b57600080fd5b50565b614c17816144f0565b8114614c2257600080fd5b5056fea2646970667358221220eb1fc48ef6656d3d2781cd7798a16f62051c2938caa90ce9fb49b045bb332fdc64736f6c63430008040033",
  "linkReferences": {},
  "deployedLinkReferences": {}
}